:020000040800F2
:10000000800600202902000831020008330200089F
:10001000350200083702000839020008000000001D
:100020000000000000000000000000003B0200088B
:100030003D020008000000003F02000865080008BB
:10004000430200084302000843020008430200087C
:10005000430200084302000843020008430200086C
:100060004302000843020008FD03000843020008A1
:10007000430200084302000843020008430200084C
:10008000430200084302000843020008430200083C
:10009000430200084302000843020008430200082C
:1000A000430200084302000843020008430200081C
:1000B00091090008430200084302000843020008B7
:1000C00043020008430200084302000843020008FC
:1000D00043020008430200084302000843020008EC
:1000E00043020008430200084302000843020008DC
:1000F00043020008430200084302000843020008CC
:1001000043020008430200084302000843020008BB
:1001100043020008430200084302000843020008AB
:10012000430200084302000843020008430200089B
:10013000430200084302000843020008430200088B
:10014000430200084302000843020008430200087B
:10015000430200084302000843020008430200086B
:10016000430200084302000843020008430200085B
:100170004302000843020008430200080000000098
:10018000430200084302000800F002F800F03CF8C7
:100190000AA090E8000C82448344AAF10107DA45E2
:1001A00001D100F031F8AFF2090EBAE80F0013F0F8
:1001B000010F18BFFB1A43F0010318473C0A000067
:1001C0005C0A0000103A24BF78C878C1FAD85207F8
:1001D00024BF30C830C144BF04680C6070470000C1
:1001E0000023002400250026103A28BF78C1FBD840
:1001F000520728BF30C148BF0B6070471FB500F0E1
:10020000E9FC1FBD10B510BD00F031F81146FFF735
:10021000F5FF00F087FC00F04FF803B4FFF7F2FFA2
:1002200003BC00F057F80000094880470948004720
:10023000FEE7FEE7FEE7FEE7FEE7FEE7FEE7FEE796
:10024000FEE7FEE704480549054A064B70470000F3
:100250002D09000889010008800000208006002088
:10026000800200208002002070477047704775466A
:1002700000F02CF8AE4605006946534620F0070012
:10028000854618B020B5FFF7DDFFBDE820404FF0F0
:1002900000064FF000074FF000084FF0000B21F070
:1002A0000701AC46ACE8C009ACE8C009ACE8C0093D
:1002B000ACE8C0098D46704710B50446AFF3008026
:1002C0002046BDE81040FFF7A8BF00000048704777
:1002D0001C00002001491820ABBEFEE726000200EA
:1002E000704700001CB50121084600F0BBF9402012
:1002F000009001208DF8040000208DF806000320F6
:100300008DF8050000208DF807006946034800F0CD
:1003100021F94021014800F067F91CBD00000240AE
:1003200000B585B00121102000F09CF9012188035F
:1003300000F0B8F900208DF810008DF812001020A0
:10034000039001208DF8130003208DF8110003A9FC
:10035000124800F0FFF80421084600F063FA10206C
:10036000019001208DF80A0000208DF808000C2073
:100370008DF8090001A800F09DF80A208DF8000012
:1003800000208DF801008DF8020001208DF8030097
:10039000684600F02BF905B000BD000000100240D7
:1003A0001FB50121084600F06DF94FF4D270ADF889
:1003B00004000020ADF80600C82002900020ADF82F
:1003C0000C0001A94FF0804000F01EFB01221146F5
:1003D000900700F00FFB0121880700F0EEFA1C20C7
:1003E0008DF8000000208DF801008DF8020001203A
:1003F0008DF80300684600F0F9F81FBD10B5102015
:1004000000F044F880B31948006848B918480068FB
:100410001849086015480068401C1449086020E02D
:100420001248006801280CD1114800681149096878
:10043000401A114908600D480068401C0B490860CB
:100440000FE00A48006802280BD1094800680A49F1
:100450000968401A0949086004480068401C0349BB
:100460000860102000F00CF810BD0000040000200F
:1004700014000020080000200C00002010000020C4
:100480000149086070470000143C0140014600200B
:100490000022074B1B6803EA0102054B14331B685B
:1004A0000B4013B10AB1012000E0002070470000AA
:1004B000003C0140002123498279002A3AD00A46B3
:1004C000126803689A430B461A600A1D1268036893
:1004D0009A430B1D1A60027911440A6803681A4393
:1004E0000A60184A0832126803689A43154B0833A9
:1004F0001A601A1D126803689A43124B0C331A6073
:100500004279102A0ED11A1F126803681A430D4B44
:1005100008331A601A1D126803681A43094B0C331A
:100520001A600DE00749427911440A6803681A43CA
:100530000A6005E0027911440A6803689A430A6078
:1005400070470000003C0140014A107070470000F5
:10055000003C0240F0B50A4600210023002400BF01
:100560003DE0012505FA01F3156805EA03049C4204
:1005700034D105684F000326BE40B54305601579A8
:100580004E00B5400668354305601579012D02D04F
:100590001579022D16D185684F000326BE40B5435C
:1005A000856055794E00B54086683543856045685D
:1005B00001268E40B5434560456896798E40B6B2B7
:1005C00035434560C5684F000326BE40B543C5604E
:1005D000D5794E00B540C6683543C560491C102921
:1005E000BFD3F0BD418370470183704770B50021D0
:1005F00000230F22C4781CB3174C246804F4E06471
:10060000C4F5E064C4F30721C1F10404E3B20A4174
:1006100044789C40E1B28478144021430C07210EB9
:100620000E4C05786155047804F01F050124AC4098
:1006300005786D11AD0005F1E025C5F8004109E030
:10064000047804F01F050124AC40054D06787611AE
:1006500045F8264070BD00000CED00E000E400E02D
:1006600080E100E029B1064A12680243044B1A6097
:1006700004E0034A12688243014B1A60704700008D
:100680003038024029B1064A12680243044B1A600E
:1006900004E0034A12688243014B1A60704700006D
:1006A0004038024029B1064A12680243044B1A60DE
:1006B00004E0034A12688243014B1A60704700004D
:1006C000443802400E48006840F001000C490860C0
:1006D00000200B49083108600948006809490840B2
:1006E000074908600848091D0860081F006820F4D1
:1006F0008020091F0860002001490C310860704704
:1007000000380240FFFFF6FE1030002410B501460D
:100710000022002300204A11012A02D10A4C23683A
:1007200008E0022A03D1084C7034236802E0064C2A
:100730007434236801F01F02012494401C400CB162
:10074000012000E0002010BD0038024001460020DA
:10075000034A106820F0F000084310607047000062
:10076000083802400021024A117011460870704793
:100770000238024001460020034A106820F4E0508D
:10078000084310607047000008380240014600200E
:10079000034A106820F4604040EAC10010607047CE
:1007A00008380240014908667047000000004742CF
:1007B00070B5049C41EA82150126C6EB530645EA52
:1007C0000645054345EA0465014E356070BD0000ED
:1007D0000438024001460020034A106820F003005C
:1007E00008431060704700000838024038B5002008
:1007F00000900024002500BF3120FFF787FF054649
:100800000098401C00900098B0F5A06F01D0002D1A
:10081000F2D03120FFF77AFF08B1012400E0002474
:10082000204638BD30B500228B071C0F0F2303FA7A
:1008300004F20B4B8C1053F824309343084C8D106A
:1008400044F8253023468C1053F824308C07240FAD
:1008500000FA04F42343024C8D1044F8253030BDD7
:100860000838014010B500F011F910BD70B5002036
:100870000022022300240221274D2D6805F00C00E0
:1008800020B1042806D0082834D107E0234D244E97
:10089000356033E0234D224E35602FE01E4D2D1F75
:1008A0002D68C5F380541C4D2D1F2D6805F03F01A8
:1008B00054B11C4DB5FBF1F5174E361F3668C6F323
:1008C000881605FB06F209E0144DB5FBF1F5124E52
:1008D000361F3668C6F3881605FB06F20E4D2D1F2F
:1008E0002D68C5F301456D1C6B00B2FBF3F50C4E92
:1008F000356003E0094D0A4E356000BF00BF064D6C
:100900002D68C5F30315084E705D054D2D68C54073
:10091000034E356070BD0000083802400024F4002A
:100920001800002000127A00DE0B0008144800684E
:1009300040F47000124908601248006840F001005D
:100940001049086000200F49083108600D48006810
:100950000D4908400B4908600C48091D0860081F34
:10096000006820F48020091F0860002005490C3130
:1009700008604FF00060024980390860704700004D
:1009800088ED00E000380240FFFFF6FE1030002442
:1009900010B50121880700F01CF840B10448006838
:1009A000401C034908600121880700F003F810BDCE
:1009B00014000020CA430282704721B1028842F02D
:1009C0000102028004E002884FF6FE731A400280A2
:1009D000704730B50246002000230024158A05EA3E
:1009E0000103958905EA010413B10CB1012000E06F
:1009F000002030BD1AB183890B43838102E08389D3
:100A00008B4383817047000000220288184B984274
:100A10000ED0184B98420BD0B0F1804F08D0164B37
:100A2000984205D0154B984202D0154B984204D1FC
:100A30004FF68F731A404B881A43124B984207D0D7
:100A4000114B984204D04FF6FF431A400B891A43CA
:100A500002804B68C3620B880385054B984202D025
:100A6000044B984201D18B7A03860123838270471D
:100A70000000014000040140000400400008004064
:100A8000000C0040001000400014004004480068C2
:100A900020B103480068401E01490860704700000B
:100AA0000000002001B504490098086000BF02481A
:100AB00000680028FBD108BD0000002038B5FFF712
:100AC00001FE0120FFF74EFEFFF790FE0446012CC9
:100AD00023D1072002234FF4A87208210090C804F4
:100AE000FFF766FE0120FFF75DFE00BF3920FFF72C
:100AF0000DFE0028FAD00520FFF726FD0020FFF7A5
:100B000025FE4FF4A050FFF735FE4FF48050FFF75D
:100B10003DFE0220FFF75EFE01E000BFFEE7FFF7AB
:100B2000A5FE38BDFFF7CAFF234800684FF47A726C
:100B3000B0FBF2F1481EB0F1807F01D301201BE031
:100B4000481E4FF0E022506150170F22002804DBAE
:100B500013071C0E194B1C5406E013071D0E184BEF
:100B600000F00F04241F1D5500BF00204FF0E022AD
:100B7000906107201061002008B100BFFEE7FFF779
:100B80000FFCFFF7AFFBFFF7CBFB14E00FE04021BA
:100B90000C48FFF727FD0C480068FFF783FF402152
:100BA0000848FFF721FD09480068FFF77BFF084868
:100BB00000680328EBD0E9E71800002000E400E01B
:100BC00018ED00E0000002400C00002010000020A2
:100BD000040000204FF04070E1EE100A7047000062
:100BE00000000000000001020304060708090000DD
:100BF0000000010203040000180C0008000000209F
:100C00001C000000C4010008340C00081C00002077
:100C100064060000E0010008000000000000000081
:100C200000000000000000000000000000000000C4
:040C30000024F400A8
:0400000508000229C4
:00000001FF
