:020000040800F2
:1000000068060020290200083102000833020008B7
:10001000350200083702000839020008000000001D
:100020000000000000000000000000003B0200088B
:100030003D020008000000003F020008E302000843
:10004000430200084302000843020008430200087C
:10005000430200084302000843020008430200086C
:10006000430200084302000843020008430200085C
:10007000430200084302000843020008430200084C
:10008000430200084302000843020008430200083C
:10009000430200084302000843020008430200082C
:1000A000430200084302000843020008430200081C
:1000B000430200084302000843020008430200080C
:1000C00043020008430200084302000843020008FC
:1000D00043020008430200084302000843020008EC
:1000E00043020008430200084302000843020008DC
:1000F00043020008430200084302000843020008CC
:1001000043020008430200084302000843020008BB
:1001100043020008430200084302000843020008AB
:10012000430200084302000843020008430200089B
:10013000430200084302000843020008430200088B
:10014000430200084302000843020008430200087B
:10015000430200084302000843020008430200086B
:10016000430200084302000843020008430200085B
:100170004302000843020008430200080000000098
:10018000430200084302000800F002F800F03CF8C7
:100190000AA090E8000C82448344AAF10107DA45E2
:1001A00001D100F031F8AFF2090EBAE80F0013F0F8
:1001B000010F18BFFB1A43F0010318476803000042
:1001C00088030000103A24BF78C878C1FAD85207D3
:1001D00024BF30C830C144BF04680C6070470000C1
:1001E0000023002400250026103A28BF78C1FBD840
:1001F000520728BF30C148BF0B6070471FB500F0E1
:100200007FF91FBD10B510BD00F031F81146FFF7A2
:10021000F5FF00F009F900F04FF803B4FFF7F2FF23
:1002200003BC00F057F80000094880470948004720
:10023000FEE7FEE7FEE7FEE7FEE7FEE7FEE7FEE796
:10024000FEE7FEE704480549054A064B70470000F3
:10025000AD0300088901000868000020680600203E
:10026000680200206802002070477047704775469A
:1002700000F02CF8AE4605006946534620F0070012
:10028000854618B020B5FFF7DDFFBDE820404FF0F0
:1002900000064FF000074FF000084FF0000B21F070
:1002A0000701AC46ACE8C009ACE8C009ACE8C0093D
:1002B000ACE8C0098D46704710B50446AFF3008026
:1002C0002046BDE81040FFF7A8BF00000048704777
:1002D0000800002001491820ABBEFEE726000200FE
:1002E000704710B500F094F810BD000070B5002004
:1002F0000022022300240221274D2D6805F00C0066
:1003000020B1042806D0082834D107E0234D244E1C
:10031000356033E0234D224E35602FE01E4D2D1FFA
:100320002D68C5F380541C4D2D1F2D6805F03F012D
:1003300054B11C4DB5FBF1F5174E361F3668C6F3A8
:10034000881605FB06F209E0144DB5FBF1F5124ED7
:10035000361F3668C6F3881605FB06F20E4D2D1FB4
:100360002D68C5F301456D1C6B00B2FBF3F50C4E17
:10037000356003E0094D0A4E356000BF00BF064DF1
:100380002D68C5F30315084E705D054D2D68C540F9
:10039000034E356070BD0000083802400024F400B0
:1003A0000400002000127A000A05000814480068C2
:1003B00040F47000124908601248006840F00100E3
:1003C0001049086000200F49083108600D48006896
:1003D0000D4908400B4908600C48091D0860081FBA
:1003E000006820F48020091F0860002005490C31B6
:1003F00008604FF0006002498039086070470000D3
:1004000088ED00E000380240FFFFF6FE10300024C7
:100410000448006820B103480068401E0149086094
:100420007047000000000020FFF760FF2E480068C2
:100430004FF47A72B0FBF2F1481EB0F1807F01D325
:1004400001201BE0481E4FF0E022506150170F22A0
:10045000002804DB13071C0E244B1C5406E0130772
:100460001D0E234B00F00F04241F1D5500BF00205C
:100470004FF0E022906107201061002008B100BF1A
:10048000FEE711201B4908604FF4A0401A4908609C
:100490001A48006820F47070184908604FF0553011
:1004A000C8601FE01448406940F08000124948616C
:1004B0000846406940F0400048611048006900F07B
:1004C000080020B90846406920F0800048610B48C8
:1004D000006900F0100028B90748406920F040008A
:1004E00005494861DEE700000400002000E400E068
:1004F00018ED00E0303802400000024000100240D9
:100500004FF04070E1EE100A70470000000000005C
:1005100000000102030406070809000000000102B0
:10052000030400004405000800000020080000004B
:10053000C40100084C050008080000206006000007
:0C054000E0010008000000000024F400AE
:040000050800018965
:00000001FF
