:020000040800F2
:10000000800600202902000831020008330200089F
:10001000350200083702000839020008000000001D
:100020000000000000000000000000003B0200088B
:100030003D020008000000003F020008F50600082D
:10004000430200084302000843020008430200087C
:10005000430200084302000843020008430200086C
:1000600043020008E50300084104000843020008B9
:10007000430200084302000843020008430200084C
:10008000430200084302000843020008430200083C
:10009000430200084302000843020008430200082C
:1000A000430200084302000843020008430200081C
:1000B00081080008A5080008430200084302000860
:1000C00043020008430200084302000843020008FC
:1000D00043020008430200084302000843020008EC
:1000E00043020008430200084302000843020008DC
:1000F00043020008430200084302000843020008CC
:1001000043020008430200084302000843020008BB
:1001100043020008430200084302000843020008AB
:10012000430200084302000843020008430200089B
:10013000430200084302000843020008430200088B
:10014000430200084302000843020008430200087B
:10015000430200084302000843020008430200086B
:10016000430200084302000843020008430200085B
:100170004302000843020008430200080000000098
:10018000430200084302000800F002F800F03CF8C7
:100190000AA090E8000C82448344AAF10107DA45E2
:1001A00001D100F031F8AFF2090EBAE80F0013F0F8
:1001B000010F18BFFB1A43F0010318472C09000078
:1001C0004C090000103A24BF78C878C1FAD8520709
:1001D00024BF30C830C144BF04680C6070470000C1
:1001E0000023002400250026103A28BF78C1FBD840
:1001F000520728BF30C148BF0B6070471FB500F0E1
:1002000061FC1FBD10B510BD00F031F81146FFF7BD
:10021000F5FF00F007FC00F04FF803B4FFF7F2FF22
:1002200003BC00F057F80000094880470948004720
:10023000FEE7FEE7FEE7FEE7FEE7FEE7FEE7FEE796
:10024000FEE7FEE704480549054A064B70470000F3
:10025000BD070008890100088000002080060020FA
:10026000800200208002002070477047704775466A
:1002700000F02CF8AE4605006946534620F0070012
:10028000854618B020B5FFF7DDFFBDE820404FF0F0
:1002900000064FF000074FF000084FF0000B21F070
:1002A0000701AC46ACE8C009ACE8C009ACE8C0093D
:1002B000ACE8C0098D46704710B50446AFF3008026
:1002C0002046BDE81040FFF7A8BF00000048704777
:1002D0001C00002001491820ABBEFEE726000200EA
:1002E0007047000000B585B00121102000F0B2F980
:1002F0000121880300F0CEF900208DF810008DF860
:1003000012000820039001208DF8130003208DF8BF
:10031000110003A9124800F00BF90321042000F09A
:10032000C9F90820019001208DF80A0000208DF8FD
:1003300008000C208DF8090001A800F0AFF8092092
:100340008DF8000000208DF801008DF802000120DA
:100350008DF80300684600F041F905B000BD0000CB
:100360000010024000B585B00121102000F072F9A4
:100370000121880300F08EF900208DF810008DF81F
:1003800012001020039001208DF8130003208DF837
:10039000110003A9124800F0CBF80421084600F030
:1003A00089F91020019001208DF80A0000208DF8B5
:1003B00008000C208DF8090001A800F06FF80A2051
:1003C0008DF8000002208DF8010000208DF8020059
:1003D00001208DF80300684600F000F905B000BD6B
:1003E0000010024010B5082000F044F800B30821C6
:1003F000104800F0E5F8C0B90F480068401C0E49ED
:10040000086008460068012803D10121800700F038
:1004100060FA09480068022804D10021074800F06A
:1004200058FA02E0002004490860082000F01CF897
:1004300010BD0000001002400C000020000400402D
:1004400010B5102000F016F858B100214FF0804090
:1004500000F03FFA0121034800F03BFA102000F0C1
:1004600003F810BD00040040014908607047000017
:10047000143C0140014600200022074B1B6803EAA0
:100480000102054B14331B680B4013B10AB1012064
:1004900000E0002070470000003C0140002123499B
:1004A0008279002A3AD00A46126803689A430B46BA
:1004B0001A600A1D126803689A430B1D1A600279BC
:1004C00011440A6803681A430A60184A083212681D
:1004D00003689A43154B08331A601A1D12680368A3
:1004E0009A43124B0C331A604279102A0ED11A1F0C
:1004F000126803681A430D4B08331A601A1D1268FC
:1005000003681A43094B0C331A600DE0074942791E
:1005100011440A6803681A430A6005E0027911442D
:100520000A6803689A430A6070470000003C014073
:10053000F0B50A4600210023002400BF3DE001255C
:1005400005FA01F3156805EA03049C4234D10568F5
:100550004F000326BE40B543056015794E00B540F7
:100560000668354305601579012D02D01579022DF5
:1005700016D185684F000326BE40B5438560557986
:100580004E00B540866835438560456801268E403B
:10059000B5434560456896798E40B6B235434560AF
:1005A000C5684F000326BE40B543C560D5794E00EF
:1005B000B540C6683543C560491C1029BFD3F0BD9E
:1005C0000246002013690B400BB1012000E000201F
:1005D00070474183704701837047000070B5002168
:1005E00000230F22C4781CB3174C246804F4E06481
:1005F000C4F5E064C4F30721C1F10404E3B20A4185
:1006000044789C40E1B28478144021430C07210EC9
:100610000E4C05786155047804F01F050124AC40A8
:1006200005786D11AD0005F1E025C5F8004109E040
:10063000047804F01F050124AC40054D06787611BE
:1006400045F8264070BD00000CED00E000E400E03D
:1006500080E100E029B1064A12680243044B1A60A7
:1006600004E0034A12688243014B1A60704700009D
:100670003038024029B1064A12680243044B1A601E
:1006800004E0034A12688243014B1A60704700007D
:100690004038024029B1064A12680243044B1A60EE
:1006A00004E0034A12688243014B1A60704700005D
:1006B0004438024030B500228B071C0F0F2303FA89
:1006C00004F20B4B8C1053F824309343084C8D10DC
:1006D00044F8253023468C1053F824308C07240F1F
:1006E00000FA04F42343024C8D1044F8253030BD49
:1006F0000838014010B500F055F910BD70B5002064
:100700000022022300240221274D2D6805F00C0051
:1007100020B1042806D0082834D107E0234D244E08
:10072000356033E0234D224E35602FE01E4D2D1FE6
:100730002D68C5F380541C4D2D1F2D6805F03F0119
:1007400054B11C4DB5FBF1F5174E361F3668C6F394
:10075000881605FB06F209E0144DB5FBF1F5124EC3
:10076000361F3668C6F3881605FB06F20E4D2D1FA0
:100770002D68C5F301456D1C6B00B2FBF3F50C4E03
:10078000356003E0094D0A4E356000BF00BF064DDD
:100790002D68C5F30315084E705D054D2D68C540E5
:1007A000034E356070BD0000083802400024F4009C
:1007B0001800002000127A00CE0A000814480068D1
:1007C00040F47000124908601248006840F00100CF
:1007D0001049086000200F49083108600D48006882
:1007E0000D4908400B4908600C48091D0860081FA6
:1007F000006820F48020091F0860002005490C31A2
:1008000008604FF0006002498039086070470000BE
:1008100088ED00E000380240FFFFF6FE10300024B3
:100820001FB501210846FFF725FF40F24730ADF81C
:100830000400632002900020ADF80C00ADF8060023
:1008400001A94FF0804000F06BF80122114690079B
:1008500000F05CF800214FF0804000F03AF81C20D6
:100860008DF8000001208DF8010000208DF80200B5
:1008700001208DF803006846FFF7B0FE1FBD0000A1
:1008800010B50121880700F030F840B10448006835
:10089000401C034908600121880700F017F810BDCB
:1008A0000400002010B50121064800F01EF840B1F8
:1008B00005480068401C044908600121014800F017
:1008C00005F810BD0004004008000020CA43028261
:1008D000704721B1028842F00102028004E00288E0
:1008E0004FF6FE731A400280704730B50246002072
:1008F00000230024158A05EA0103958905EA01040D
:1009000013B10CB1012000E0002030BD1AB1838981
:100910000B43838102E083898B438381704700000E
:1009200000220288184B98420ED0184B98420BD0E8
:10093000B0F1804F08D0164B984205D0154B984225
:1009400002D0154B984204D14FF68F731A404B8852
:100950001A43124B984207D0114B984204D04FF6DD
:10096000FF431A400B891A4302804B68C3620B880D
:100970000385054B984202D0044B984201D18B7AF3
:100980000386012383827047000001400004014078
:100990000004004000080040000C0040001000402F
:1009A000001400400448006820B103480068401E5D
:1009B00001490860704700000000002001B50449AB
:1009C0000098086000BF024800680028FBD108BDFD
:1009D0000000002010B501210846FFF73BFEC020B3
:1009E0000D490860012008710020887103204871BA
:1009F0000020C8710948FFF79BFD01211020FFF777
:100A000029FE182004490860002008710120C871DF
:100A10000348FFF78DFD10BD1000002000000240CC
:100A200000100240FFF76AFE214800684FF47A7216
:100A3000B0FBF2F1481EB0F1807F01D301201BE032
:100A4000481E4FF0E022506150170F22002807DAAD
:100A500013071D0E174B00F00F04241F1D5503E054
:100A600013071C0E144B1C5400BF00204FF0E02253
:100A7000906107201061002008B100BFFEE7FFF77A
:100A8000A9FFFFF7CDFEFFF72DFCFFF76BFC0EE093
:100A900040210A48FFF79DFDC820FFF78FFF402146
:100AA0000648FFF798FD06480068FFF787FFEFE765
:100AB0001800002018ED00E000E400E00000024013
:100AC000080000204FF04070E1EE100A704700006F
:100AD00000000000000001020304060708090000EE
:100AE0000000010203040000080B000800000020C1
:100AF0001C000000C4010008240B00081C0000209A
:100B000064060000E0010008000000000000000092
:100B100000000000000000000000000000000000D5
:040B20000024F400B9
:040000050800018965
:00000001FF
