:020000040800F2
:1000000068060020290200083102000833020008B7
:10001000350200083702000839020008000000001D
:100020000000000000000000000000003B0200088B
:100030003D020008000000003F02000841020008E5
:10004000430200084302000843020008430200087C
:10005000430200084302000843020008430200086C
:10006000430200084302000843020008430200085C
:10007000430200084302000843020008430200084C
:10008000430200084302000843020008430200083C
:10009000430200084302000843020008430200082C
:1000A000430200084302000843020008430200081C
:1000B0000507000843020008430200084302000845
:1000C00043020008430200084302000843020008FC
:1000D00043020008430200084302000843020008EC
:1000E00043020008430200084302000843020008DC
:1000F00043020008430200084302000843020008CC
:1001000043020008430200084302000843020008BB
:1001100043020008430200084302000843020008AB
:10012000430200084302000843020008430200089B
:10013000430200084302000843020008430200088B
:10014000430200084302000843020008430200087B
:10015000430200084302000843020008430200086B
:10016000430200084302000843020008430200085B
:100170004302000843020008430200080000000098
:10018000430200084302000800F002F800F03CF8C7
:100190000AA090E8000C82448344AAF10107DA45E2
:1001A00001D100F031F8AFF2090EBAE80F0013F0F8
:1001B000010F18BFFB1A43F001031847F0090000B4
:1001C000100A0000103A24BF78C878C1FAD8520744
:1001D00024BF30C830C144BF04680C6070470000C1
:1001E0000023002400250026103A28BF78C1FBD840
:1001F000520728BF30C148BF0B6070471FB500F0E1
:10020000C3FC1FBD10B510BD00F031F81146FFF75B
:10021000F5FF00F067FC00F04FF803B4FFF7F2FFC2
:1002200003BC00F057F80000094880470948004720
:10023000FEE7FEE7FEE7FEE7FEE7FEE7FEE7FEE796
:10024000FEE7FEE704480549054A064B70470000F3
:10025000A106000889010008680000206806002047
:10026000680200206802002070477047704775469A
:1002700000F02CF8AE4605006946534620F0070012
:10028000854618B020B5FFF7DDFFBDE820404FF0F0
:1002900000064FF000074FF000084FF0000B21F070
:1002A0000701AC46ACE8C009ACE8C009ACE8C0093D
:1002B000ACE8C0098D46704710B50446AFF3008026
:1002C0002046BDE81040FFF7A8BF00000048704777
:1002D0000800002001491820ABBEFEE726000200FE
:1002E00070470000014A107070470000003C024057
:1002F000F0B50A4600210023002400BF3DE001259F
:1003000005FA01F3156805EA03049C4234D1056837
:100310004F000326BE40B543056015794E00B54039
:100320000668354305601579012D02D01579022D37
:1003300016D185684F000326BE40B54385605579C8
:100340004E00B540866835438560456801268E407D
:10035000B5434560456896798E40B6B235434560F1
:10036000C5684F000326BE40B543C560D5794E0031
:10037000B540C6683543C560491C1029BFD3F0BDE0
:10038000F0B5002300244D07ED0E02FA05F3CE1060
:1003900000F1200555F826504E07F70E0F26BE40F7
:1003A000B543CF1000F1200646F82750CE1000F1DB
:1003B000200555F8265045EA0304CE1000F120052B
:1003C00045F82640F0BD000070B5002100230F2243
:1003D000C4781CB3174C246804F4E064C4F5E064EA
:1003E000C4F30721C1F10404E3B20A4144789C40FC
:1003F000E1B28478144021430C07210E0E4C05789D
:100400006155047804F01F050124AC4005786D1196
:10041000AD0005F1E025C5F8004109E0047804F0DD
:100420001F050124AC40054D0678761145F826409D
:1004300070BD00000CED00E000E400E080E100E0B1
:1004400029B1064A12680243044B1A6004E0034AC9
:1004500012688243014B1A60704700003038024036
:1004600029B1064A12680243044B1A6004E0034AA9
:1004700012688243014B1A60704700004038024006
:100480000E48006840F001000C49086000200B494C
:1004900008310860094800680949084007490860B0
:1004A0000848091D0860081F006820F48020091F03
:1004B0000860002001490C31086070470038024094
:1004C000FFFFF6FE1030002410B501460022002385
:1004D00000204A11012A02D10A4C236808E0022AAE
:1004E00003D1084C7034236802E0064C743423684E
:1004F00001F01F02012494401C400CB1012000E0D7
:10050000002010BD0038024001460020034A106858
:1005100020F0F000084310607047000008380240E7
:100520000021024A117011460870704702380240DB
:1005300001460020034A106820F4E0500843106090
:10054000704700000838024001460020034A106846
:1005500020F4604040EAC100106070470838024053
:1005600001490866704700000000474270B5049CCE
:1005700041EA82150126C6EB530645EA06450543C6
:1005800045EA0465014E356070BD00000438024044
:1005900001460020034A106820F003000843106061
:1005A000704700000838024038B500200090002451
:1005B000002500BF3120FFF787FF05460098401C4B
:1005C00000900098B0F5A06F01D0002DF2D031203E
:1005D000FFF77AFF08B1012400E00024204638BD6F
:1005E00070B500200022022300240221274D2D682F
:1005F00005F00C0020B1042806D0082834D107E00B
:10060000234D244E356033E0234D224E35602FE0DC
:100610001E4D2D1F2D68C5F380541C4D2D1F2D68B8
:1006200005F03F0154B11C4DB5FBF1F5174E361FD7
:100630003668C6F3881605FB06F209E0144DB5FBD3
:10064000F1F5124E361F3668C6F3881605FB06F222
:100650000E4D2D1F2D68C5F301456D1C6B00B2FBBF
:10066000F3F50C4E356003E0094D0A4E356000BFCE
:1006700000BF064D2D68C5F30315084E705D054D8E
:100680002D68C540034E356070BD0000083802403B
:100690000024F4000400002000127A00920B0008ED
:1006A0001448006840F4700012490860124800685D
:1006B00040F001001049086000200F49083108602F
:1006C0000D4800680D4908400B4908600C48091D99
:1006D0000860081F006820F48020091F08600020BF
:1006E00005490C3108604FF000600249803908600C
:1006F0007047000088ED00E000380240FFFFF6FE82
:100700001030002410B50121880700F017F828B137
:1007100000F07CF90121880700F001F810BDCA4300
:100720000282704721B1028842F00102028004E097
:1007300002884FF6FE731A400280704730B50246B9
:10074000002000230024158A05EA0103958905EAA3
:10075000010413B10CB1012000E0002030BD1AB13A
:1007600083890B43838102E083898B4383817047B4
:1007700070B5002400220023058C4FF6FE7635402C
:100780000584028C8388048B4FF68F752C40B51E30
:100790002C400D882C43751E2A408D892A434D8894
:1007A0002A43104DA84202D00F4DA84213D14FF654
:1007B000F7752A40CD892A434FF6FB752A408D886C
:1007C0002A434FF6FF652B404FF6FF552B400D8A0D
:1007D0002B434D8A2B43838004838D6845630284B9
:1007E00070BD000000000140000401400A460021E5
:1007F000018B4FF6F77319401143018370470000D6
:1008000070B5002400220023058C4FF6EF763540AA
:100810000584028C8388048B48F6FF752C404FF6C4
:10082000FF452C400D884FF6FF7606EA05252C4340
:100830004FF6DF752A408D8906EA05152A434D8853
:1008400006EA05152A43154DA84202D0144DA842C8
:100850001DD14FF67F752A40CD894FF6FF7606EA07
:1008600005152A434FF6BF752A408D8806EA0515FF
:100870002A434FF6FF352B404FF2FF752B400D8A70
:1008800006EA85052B434D8A06EA85052B438380BE
:1008900004838D688563028470BD00000000014000
:1008A000000401400A460021018B4FF2FF731940FA
:1008B0004FF6FF7303EA0223194301837047416334
:1008C000704781637047000000220288184B9842ED
:1008D0000ED0184B98420BD0B0F1804F08D0164B79
:1008E000984205D0154B984202D0154B984204D13E
:1008F0004FF68F731A404B881A43124B984207D019
:10090000114B984204D04FF6FF431A400B891A430B
:1009100002804B68C3620B880385054B984202D066
:10092000044B984201D18B7A03860123838270475E
:1009300000000140000401400004004000080040A5
:10094000000C004000100040001400401CB50121C4
:100950000846FFF775FD022206210D48FFF710FD3E
:10096000022207210A48FFF70BFDC020009000205B
:100970008DF806008DF8070002208DF80400032092
:100980008DF8050069460248FFF7B2FC1CBD000067
:100990000000024000B585B06020ADF800000120E5
:1009A000ADF802000220ADF80C0063200290694609
:1009B0000948FFF7DDFE08210748FFF717FF32203F
:1009C000029069460448FFF71BFF08210248FFF721
:1009D00069FF05B000BD0000000400400EB5012114
:1009E0000220FFF73DFD642001900020ADF80800D3
:1009F0008DF80A0069460448FFF766FF01210248A6
:100A0000FFF790FE0EBD000000040040044800689F
:100A100020B103480068401E01490860704700008B
:100A20000000002010B5C8234FF4D27201218807BE
:100A300000F088F81C2000F005F84FF0804000F02E
:100A40009CF810BD38B504468DF8004000208DF8A4
:100A500001008DF8020001208DF803006846FFF7C1
:100A6000B3FC38BD01B504490098086000BF0248D6
:100A700000680028FBD108BD0000002038B5FFF752
:100A8000FFFC0120FFF74CFDFFF78EFD0446012C13
:100A900023D1072002234FF4A87208210090C80434
:100AA000FFF764FD0120FFF75BFD00BF3920FFF772
:100AB0000BFD0028FAD00520FFF714FC0020FFF7FB
:100AC00023FD4FF4A050FFF733FD4FF48050FFF7A4
:100AD0003BFD0220FFF75CFD01E000BFFEE7FFF7F2
:100AE0007FFD38BDFFF7CAFFFFF79CFFFFF776FFDA
:100AF000FFF750FFFFF72AFF00241FE000240BE060
:100B000021460F48FFF7DBFE21460D48FFF7D9FECF
:100B10006420FFF7A7FF641C642CF1DB64240BE066
:100B200021460748FFF7CBFE21460548FFF7C9FEDF
:100B3000C820FFF797FF641E002CF1DCDEE7000001
:100B400000040040FEB507460C4615461E4601212E
:100B50002046FFF785FCADF800500020ADF80200FC
:100B60000196ADF8080069463846FFF7ADFE012250
:100B700011463846FFF7F3FDFEBD10B504460121CE
:100B80002046FFF7CFFD10BD4FF04070E1EE100A98
:100B90007047000000000000000001020304060787
:100BA000080900000000010203040000CC0B00084B
:100BB0000000002008000000C4010008D40B000859
:100BC0000800002060060000E001000800000000AE
:040BD0000024F40009
:0400000508000229C4
:00000001FF
