:020000040800F2
:1000000068060020290200083102000833020008B7
:10001000350200083702000839020008000000001D
:100020000000000000000000000000003B0200088B
:100030003D020008000000003F02000841020008E5
:10004000430200084302000843020008430200087C
:10005000430200084302000843020008430200086C
:10006000430200084302000843020008430200085C
:10007000430200084302000843020008430200084C
:10008000430200084302000843020008430200083C
:10009000430200084302000843020008430200082C
:1000A000430200084302000843020008430200081C
:1000B0009D070008430200084302000843020008AD
:1000C00043020008430200084302000843020008FC
:1000D00043020008430200084302000843020008EC
:1000E00043020008430200084302000843020008DC
:1000F00043020008430200084302000843020008CC
:1001000043020008430200084302000843020008BB
:1001100043020008430200084302000843020008AB
:10012000430200084302000843020008430200089B
:10013000430200084302000843020008430200088B
:10014000430200084302000843020008430200087B
:10015000430200084302000843020008430200086B
:10016000430200084302000843020008430200085B
:100170004302000843020008430200080000000098
:10018000430200084302000800F002F800F03CF8C7
:100190000AA090E8000C82448344AAF10107DA45E2
:1001A00001D100F031F8AFF2090EBAE80F0013F0F8
:1001B000010F18BFFB1A43F0010318477C0700002A
:1001C0009C070000103A24BF78C878C1FAD85207BB
:1001D00024BF30C830C144BF04680C6070470000C1
:1001E0000023002400250026103A28BF78C1FBD840
:1001F000520728BF30C148BF0B6070471FB500F0E1
:1002000089FB1FBD10B510BD00F031F81146FFF796
:10021000F5FF00F075FB00F04FF803B4FFF7F2FFB5
:1002200003BC00F057F80000094880470948004720
:10023000FEE7FEE7FEE7FEE7FEE7FEE7FEE7FEE796
:10024000FEE7FEE704480549054A064B70470000F3
:1002500039070008890100086800002068060020AE
:10026000680200206802002070477047704775469A
:1002700000F02CF8AE4605006946534620F0070012
:10028000854618B020B5FFF7DDFFBDE820404FF0F0
:1002900000064FF000074FF000084FF0000B21F070
:1002A0000701AC46ACE8C009ACE8C009ACE8C0093D
:1002B000ACE8C0098D46704710B50446AFF3008026
:1002C0002046BDE81040FFF7A8BF00000048704777
:1002D0000400002001491820ABBEFEE72600020002
:1002E00070470000014A107070470000003C024057
:1002F0001CB50121084600F09DF802200090012065
:100300008DF8040000208DF8060003208DF805000C
:1003100000208DF807006946014800F003F81CBD75
:1003200000000240F0B50A4600210023002400BF6F
:100330003DE0012505FA01F3156805EA03049C4236
:1003400034D105684F000326BE40B54305601579DA
:100350004E00B5400668354305601579012D02D081
:100360001579022D16D185684F000326BE40B5438E
:10037000856055794E00B54086683543856045688F
:1003800001268E40B5434560456896798E40B6B2E9
:1003900035434560C5684F000326BE40B543C56080
:1003A000D5794E00B540C6683543C560491C102953
:1003B000BFD3F0BD42694A404261704770B5002129
:1003C00000230F22C4781CB3174C246804F4E064A3
:1003D000C4F5E064C4F30721C1F10404E3B20A41A7
:1003E00044789C40E1B28478144021430C07210EEC
:1003F0000E4C05786155047804F01F050124AC40CB
:1004000005786D11AD0005F1E025C5F8004109E062
:10041000047804F01F050124AC40054D06787611E0
:1004200045F8264070BD00000CED00E000E400E05F
:1004300080E100E029B1064A12680243044B1A60C9
:1004400004E0034A12688243014B1A6070470000BF
:100450003038024029B1064A12680243044B1A6040
:1004600004E0034A12688243014B1A60704700009F
:10047000403802400E48006840F001000C49086016
:1004800000200B4908310860094800680949084004
:10049000074908600848091D0860081F006820F423
:1004A0008020091F0860002001490C310860704756
:1004B00000380240FFFFF6FE1030002410B5014660
:1004C0000022002300204A11012A02D10A4C23688D
:1004D00008E0022A03D1084C7034236802E0064C7D
:1004E0007434236801F01F02012494401C400CB1B5
:1004F000012000E0002010BD00380240014600202D
:10050000034A106820F0F0000843106070470000B4
:10051000083802400021024A1170114608707047E5
:100520000238024001460020034A106820F4E050DF
:100530000843106070470000083802400146002060
:10054000034A106820F4604040EAC1001060704720
:100550000838024001490866704700000000474221
:1005600070B5049C41EA82150126C6EB530645EAA4
:100570000645054345EA0465014E356070BD00003F
:100580000438024001460020034A106820F00300AE
:1005900008431060704700000838024038B500205A
:1005A00000900024002500BF3120FFF787FF05469B
:1005B0000098401C00900098B0F5A06F01D0002D6D
:1005C000F2D03120FFF77AFF08B1012400E00024C7
:1005D000204638BD70B52DED028B84B004460D4623
:1005E00001210846FFF736FF00EE104AB8EE400A38
:1005F000DFED1F0A80EE201AB0EE418AB7EE000A46
:10060000C0EE080AB0EE608A9FED1A0AC0EE080A32
:10061000B0EE608ABCEEC80A10EE106A42F21070AA
:10062000ADF8040002960020ADF80C00ADF806000D
:1006300001A94FF0804000F0EDF80122114690072B
:1006400000F0DEF80121880700F0BDF81C208DF8CD
:1006500000008DF8015000208DF8020001208DF877
:1006600003006846FFF7AAFE04B0BDEC028B70BD24
:1006700000007A440040034670B5002000220223A7
:1006800000240221274D2D6805F00C0020B104281C
:1006900006D0082834D107E0234D244E356033E0DE
:1006A000234D224E35602FE01E4D2D1F2D68C5F3C2
:1006B00080541C4D2D1F2D6805F03F0154B11C4D79
:1006C000B5FBF1F5174E361F3668C6F3881605FBE5
:1006D00006F209E0144DB5FBF1F5124E361F3668EF
:1006E000C6F3881605FB06F20E4D2D1F2D68C5F3C7
:1006F00001456D1C6B00B2FBF3F50C4E356003E059
:10070000094D0A4E356000BF00BF064D2D68C5F388
:100710000315084E705D054D2D68C540034E3560CC
:1007200070BD0000083802400024F40000000020E2
:1007300000127A001E0900081448006840F4700096
:10074000124908601248006840F001001049086032
:1007500000200F49083108600D4800680D49084025
:100760000B4908600C48091D0860081F006820F448
:100770008020091F0860002005490C3108604FF0F7
:1007800000600249803908607047000088ED00E091
:1007900000380240FFFFF6FE1030002410B50121A2
:1007A000880700F01CF838B102210448FFF702FE68
:1007B0000121880700F004F810BD0000000002408D
:1007C000CA430282704721B1028842F001020280CE
:1007D00004E002884FF6FE731A400280704730B57D
:1007E0000246002000230024158A05EA01039589AA
:1007F00005EA010413B10CB1012000E0002030BD76
:100800001AB183890B43838102E083898B438381FF
:100810007047000000220288184B98420ED0184BF7
:1008200098420BD0B0F1804F08D0164B984205D0BB
:10083000154B984202D0154B984204D14FF68F7356
:100840001A404B881A43124B984207D0114B9842DA
:1008500004D04FF6FF431A400B891A4302804B68BD
:10086000C3620B880385054B984202D0044B984223
:1008700001D18B7A038601238382704700000140F7
:10088000000401400004004000080040000C00404B
:10089000001000400014004038B5FFF7EBFD0120C8
:1008A000FFF738FEFFF77AFE0446012C23D107201C
:1008B00002234FF4A87208210090C804FFF750FEED
:1008C0000120FFF747FE00BF3920FFF7F7FD0028A2
:1008D000FAD00520FFF706FD0020FFF70FFE4FF4CA
:1008E000A050FFF71FFE4FF48050FFF727FE0220B5
:1008F000FFF748FE01E000BFFEE7FFF7BDFE38BD91
:10090000FFF7CAFFFFF7F4FC0021C820FFF762FEE3
:1009100000BFFEE74FF04070E1EE100A70470000A4
:10092000000000000000010203040607080900009F
:100930000000010203040000580900080000002024
:1009400004000000C40100085C0900080400002045
:0C09500064060000E00100080024F40030
:040000050800018965
:00000001FF
