:020000040800F2
:100000008806002029020008310200083302000897
:10001000350200083702000839020008000000001D
:100020000000000000000000000000003B0200088B
:100030003D020008000000003F020008D107000850
:10004000430200084302000843020008430200087C
:10005000430200084302000843020008430200086C
:100060004302000865030008430200084302000839
:10007000430200084302000843020008430200084C
:10008000430200084302000843020008430200083C
:10009000430200084302000843020008430200082C
:1000A000430200084302000843020008430200081C
:1000B0005D090008F5090008430200084302000832
:1000C00043020008430200084302000843020008FC
:1000D00043020008430200084302000843020008EC
:1000E00043020008430200084302000843020008DC
:1000F00043020008430200084302000843020008CC
:1001000043020008430200084302000843020008BB
:1001100043020008430200084302000843020008AB
:10012000430200084302000843020008430200089B
:10013000430200084302000843020008430200088B
:10014000430200084302000843020008430200087B
:10015000430200084302000843020008430200086B
:10016000430200084302000843020008430200085B
:100170004302000843020008430200080000000098
:10018000430200084302000800F002F800F03CF8C7
:100190000AA090E8000C82448344AAF10107DA45E2
:1001A00001D100F031F8AFF2090EBAE80F0013F0F8
:1001B000010F18BFFB1A43F001031847F40B0000AE
:1001C000140C0000103A24BF78C878C1FAD852073E
:1001D00024BF30C830C144BF04680C6070470000C1
:1001E0000023002400250026103A28BF78C1FBD840
:1001F000520728BF30C148BF0B6070471FB500F0E1
:10020000C5FD1FBD10B510BD00F031F81146FFF758
:10021000F5FF00F0E3FC00F04FF803B4FFF7F2FF46
:1002200003BC00F057F80000094880470948004720
:10023000FEE7FEE7FEE7FEE7FEE7FEE7FEE7FEE796
:10024000FEE7FEE704480549054A064B70470000F3
:10025000990800088901000888000020880600200D
:10026000880200208802002070477047704775465A
:1002700000F02CF8AE4605006946534620F0070012
:10028000854618B020B5FFF7DDFFBDE820404FF0F0
:1002900000064FF000074FF000084FF0000B21F070
:1002A0000701AC46ACE8C009ACE8C009ACE8C0093D
:1002B000ACE8C0098D46704710B50446AFF3008026
:1002C0002046BDE81040FFF7A8BF00000048704777
:1002D0002400002001491820ABBEFEE726000200E2
:1002E0007047000000B585B00121102000F070F9C2
:1002F0000121880300F08CF900208DF810008DF8A2
:1003000012000820039001208DF8130003208DF8BF
:10031000110003A9124800F0CFF80321042000F0D7
:1003200037FA0820019001208DF80A0000208DF88E
:10033000080010208DF8090001A800F06DF80920D0
:100340008DF8000000208DF801008DF802000120DA
:100350008DF80300684600F0FFF805B000BD00000E
:100360000010024010B5082000F042F848B31748CA
:100370000088401C1549088015480088401C144915
:1003800008801248008801280CD10121114800F092
:1003900048FB0121880700F044FB00200E4908803B
:1003A0000E4908800948008802280AD1002109481E
:1003B00000F037FB084800880949088000200349FD
:1003C0000880082000F00EF810BD00000400002096
:1003D00006000020000400400A0000201400002055
:1003E000080000200149086070470000143C0140EB
:1003F000014600200022074B1B6803EA0102054B5F
:1004000014331B680B4013B10AB1012000E0002037
:1004100070470000003C0140002123498279002AF6
:100420003AD00A46126803689A430B461A600A1DBE
:10043000126803689A430B1D1A60027911440A6816
:1004400003681A430A60184A0832126803689A431C
:10045000154B08331A601A1D126803689A43124B31
:100460000C331A604279102A0ED11A1F12680368E1
:100470001A430D4B08331A601A1D126803681A4399
:10048000094B0C331A600DE00749427911440A68A0
:1004900003681A430A6005E0027911440A68036898
:1004A0009A430A6070470000003C0140014A107006
:1004B00070470000003C0240F0B50A4600210023CE
:1004C000002400BF3DE0012505FA01F3156805EAA7
:1004D00003049C4234D105684F000326BE40B54357
:1004E000056015794E00B5400668354305601579FD
:1004F000012D02D01579022D16D185684F000326F3
:10050000BE40B543856055794E00B5408668354399
:100510008560456801268E40B543456045689679FB
:100520008E40B6B235434560C5684F000326BE40D5
:10053000B543C560D5794E00B540C6683543C56042
:10054000491C1029BFD3F0BD418370470183704718
:1005500042694A404261704770B5002100230F2272
:10056000C4781CB3174C246804F4E064C4F5E06458
:10057000C4F30721C1F10404E3B20A4144789C406A
:10058000E1B28478144021430C07210E0E4C05780B
:100590006155047804F01F050124AC4005786D1105
:1005A000AD0005F1E025C5F8004109E0047804F04C
:1005B0001F050124AC40054D0678761145F826400C
:1005C00070BD00000CED00E000E400E080E100E020
:1005D00029B1064A12680243044B1A6004E0034A38
:1005E00012688243014B1A607047000030380240A5
:1005F00029B1064A12680243044B1A6004E0034A18
:1006000012688243014B1A60704700004038024074
:1006100029B1064A12680243044B1A6004E0034AF7
:1006200012688243014B1A60704700004438024050
:100630000E48006840F001000C49086000200B499A
:1006400008310860094800680949084007490860FE
:100650000848091D0860081F006820F48020091F51
:100660000860002001490C310860704700380240E2
:10067000FFFFF6FE1030002410B5014600220023D3
:1006800000204A11012A02D10A4C236808E0022AFC
:1006900003D1084C7034236802E0064C743423689C
:1006A00001F01F02012494401C400CB1012000E025
:1006B000002010BD0038024001460020034A1068A7
:1006C00020F0F00008431060704700000838024036
:1006D0000021024A1170114608707047023802402A
:1006E00001460020034A106820F4E05008431060DF
:1006F000704700000838024001460020034A106895
:1007000020F4604040EAC1001060704708380240A1
:1007100001490866704700000000474270B5049C1C
:1007200041EA82150126C6EB530645EA0645054314
:1007300045EA0465014E356070BD00000438024092
:1007400001460020034A106820F0030008431060AF
:10075000704700000838024038B50020009000249F
:10076000002500BF3120FFF787FF05460098401C99
:1007700000900098B0F5A06F01D0002DF2D031208C
:10078000FFF77AFF08B1012400E00024204638BDBD
:1007900030B500228B071C0F0F2303FA04F20B4B1A
:1007A0008C1053F824309343084C8D1044F82530B6
:1007B00023468C1053F824308C07240F00FA04F4DD
:1007C0002343024C8D1044F8253030BD08380140D9
:1007D00010B500F08FF910BD70B500200022022383
:1007E00000240221274D2D6805F00C0020B10428BB
:1007F00006D0082834D107E0234D244E356033E07D
:10080000234D224E35602FE01E4D2D1F2D68C5F360
:1008100080541C4D2D1F2D6805F03F0154B11C4D17
:10082000B5FBF1F5174E361F3668C6F3881605FB83
:1008300006F209E0144DB5FBF1F5124E361F36688D
:10084000C6F3881605FB06F20E4D2D1F2D68C5F365
:1008500001456D1C6B00B2FBF3F50C4E356003E0F7
:10086000094D0A4E356000BF00BF064D2D68C5F327
:100870000315084E705D054D2D68C540034E35606B
:1008800070BD0000083802400024F4002000002061
:1008900000127A00960D00081448006840F47000B9
:1008A000124908601248006840F0010010490860D1
:1008B00000200F49083108600D4800680D490840C4
:1008C0000B4908600C48091D0860081F006820F4E7
:1008D0008020091F0860002005490C3108604FF096
:1008E00000600249803908607047000088ED00E030
:1008F00000380240FFFFF6FE103000241FB5012132
:100900000846FFF775FE42F2CF00ADF8040047F24B
:100910002F5002900020ADF80C00ADF8060001A9A0
:100920004FF0804000F0A4F801221146900700F03B
:1009300095F800214FF0804000F073F81C208DF8EE
:10094000000003208DF8010000208DF80200012036
:100950008DF803006846FFF7FFFD1FBD10B50121AC
:10096000880700F06AF878B100214FF0804000F06D
:1009700058F8064800880649088000200349088086
:100980000121880700F04AF810BD00000600002091
:10099000140000201FB501210220FFF729FE40F2BC
:1009A0004730ADF80400632002900020ADF80C0041
:1009B000ADF8060001A90E4800F05AF801221146D0
:1009C0000B4800F04BF80021094800F02AF81D20E0
:1009D0008DF8000002208DF8010000208DF8020043
:1009E00001208DF803006846FFF7B6FD1FBD00002B
:1009F0000004004010B50121064800F01EF840B187
:100A000005480088401C044908800121014800F085
:100A100005F810BD000400400A000020CA4302820D
:100A2000704721B1028842F00102028004E002888E
:100A30004FF6FE731A400280704730B50246002020
:100A400000230024158A05EA0103958905EA0104BB
:100A500013B10CB1012000E0002030BD1AB1838930
:100A60000B43838102E083898B43838170470000BD
:100A700000220288184B98420ED0184B98420BD097
:100A8000B0F1804F08D0164B984205D0154B9842D4
:100A900002D0154B984204D14FF68F731A404B8801
:100AA0001A43124B984207D0114B984204D04FF68C
:100AB000FF431A400B891A4302804B68C3620B88BC
:100AC0000385054B984202D0044B984201D18B7AA2
:100AD0000386012383827047000001400004014027
:100AE0000004004000080040000C004000100040DE
:100AF000001400400448006820B103480068401E0C
:100B000001490860704700000000002001B5044959
:100B10000098086000BF024800680028FBD108BDAB
:100B20000000002038B5FFF783FD0120FFF7D0FD5E
:100B3000FFF712FE0446012C23D1072002234FF4B5
:100B4000A87208210090C804FFF7E8FD0120FFF714
:100B5000DFFD00BF3920FFF78FFD0028FAD0052008
:100B6000FFF7A4FC0020FFF7A7FD4FF4A050FFF70C
:100B7000B7FD4FF48050FFF7BFFD0220FFF7E0FD07
:100B800001E000BFFEE7FFF727FE38BD10B50121E9
:100B90000846FFF71DFDC0200D49086001200871BF
:100BA00000208871032048710020C8710948FFF7B0
:100BB00083FC01211020FFF70BFD18200449086079
:100BC000002008710120C8710348FFF775FC10BDB3
:100BD000180000200000024000100240FFF7A2FFB2
:100BE000FFF7FAFD634800684FF47A72B0FBF2F148
:100BF000481EB0F1807F01D301201BE0481E4FF05A
:100C0000E022506150170F22002807DA13071D0E4B
:100C1000594B00F00F04241F1D5503E013071C0E51
:100C2000564B1C5400BF00204FF0E022906107207B
:100C30001061002008B100BFFEE7FFF7A7FFFFF734
:100C400051FBFFF75BFEFFF7A5FE92E089E04C4801
:100C50000088B0F5FA6F07DA40214A48FFF776FCC2
:100C600080214848FFF772FC45480088B0F5FA6FCC
:100C700041DD40214348FFF769FC80214148FFF7EF
:100C800065FCC820FFF742FF40213E48FFF75CFCAF
:100C900080213C48FFF758FCC820FFF737FF402170
:100CA0003848FFF753FC80213648FFF74FFCC82037
:100CB000FFF72CFF40213348FFF746FC80213148E5
:100CC000FFF742FCC820FFF721FF40212D48FFF726
:100CD0003DFC80212B48FFF739FCC820FFF716FFA9
:100CE00040212848FFF730FC80212648FFF72CFCE4
:100CF000C820FFF70BFF24480088062818DC22488C
:100D00000088022814DD40211E48FFF721FCC8207E
:100D1000FFF7FCFE40211B48FFF71AFCC820FFF735
:100D2000F5FE40211748FFF713FCC820FFF7EEFE41
:100D300015480088062814DD80211248FFF708FCBA
:100D4000C820FFF7E3FE80210E48FFF701FCC82012
:100D5000FFF7DCFE80210B48FFF7FAFBC820FFF706
:100D6000D5FE0948008820B10548008800287FF496
:100D70006EAF6BE72000002018ED00E000E400E01B
:100D80000800002000000240140000204FF04070D6
:100D9000E1EE100A704700000000000000000102B0
:100DA0000304060708090000000001020304000014
:100DB000D00D00080000002024000000C40100083D
:100DC000F40D00082400002064060000E001000883
:100DD0000000000000000000000000000100000012
:100DE0000200000000000000000000000000000001
:040DF0000024F400E7
:040000050800018965
:00000001FF
