:020000040800F2
:10000000600600200D020008150200081702000813
:10001000190200081B0200081D0200080000000071
:100020000000000000000000000000001F020008A7
:100030002102000800000000230200082502000839
:1000400027020008270200082702000827020008EC
:1000500027020008270200082702000827020008DC
:1000600027020008C9030008ED0300082702000862
:1000700027020008270200082702000827020008BC
:1000800027020008270200082702000827020008AC
:10009000270200082702000827020008270200089C
:1000A000270200082702000827020008270200088C
:1000B000270200082702000827020008270200087C
:1000C000270200082702000827020008270200086C
:1000D000270200082702000827020008270200085C
:1000E000270200082702000827020008270200084C
:1000F000270200082702000827020008270200083C
:10010000270200082702000827020008270200082B
:10011000270200082702000827020008270200081B
:10012000270200082702000827020008270200080B
:1001300027020008270200082702000827020008FB
:1001400027020008270200082702000827020008EB
:1001500027020008270200082702000827020008DB
:1001600027020008270200082702000827020008CB
:1001700027020008270200082702000800000000EC
:10018000270200082702000800F002F800F02EF80D
:100190000AA090E8000C82448344AAF10107DA45E2
:1001A00001D100F023F8AFF2090EBAE80F0013F006
:1001B000010F18BFFB1A43F0010318479C0500000C
:1001C000AC0500000023002400250026103A28BFBB
:1001D00078C1FBD8520728BF30C148BF0B607047B9
:1001E0001FB500F0B3FA1FBD10B510BD00F031F817
:1001F0001146FFF7F5FF00F097FA00F04FF803B44F
:10020000FFF7F2FF03BC00F057F8000009488047F1
:1002100009480047FEE7FEE7FEE7FEE7FEE7FEE7E8
:10022000FEE7FEE7FEE7FEE704480549054A064B00
:100230007047000091060008890100086000002056
:1002400060060020600200206002002070477047B6
:100250007047754600F02CF8AE46050069465346D7
:1002600020F00700854618B020B5FFF7DDFFBDE898
:1002700020404FF000064FF000074FF000084FF00D
:10028000000B21F00701AC46ACE8C009ACE8C0099E
:10029000ACE8C009ACE8C0098D46704710B504460B
:1002A000AFF300802046BDE81040FFF7A8BF000074
:1002B000004870470000002001491820ABBEFEE74F
:1002C000260002007047000000B585B00121102013
:1002D00000F09EF90121880300F0AAF900208DF8B2
:1002E00010008DF812000820039001208DF81300F3
:1002F00003208DF8110003A9124800F0F7F803213C
:10030000042000F0A5F90820019001208DF80A00D2
:1003100000208DF8080010208DF8090001A800F0D9
:100320009BF809208DF8000000208DF801008DF861
:10033000020001208DF80300684600F02DF905B099
:1003400000BD00000010024000B585B00121102062
:1003500000F05EF90121880300F06AF900208DF8B1
:1003600010008DF812001020039001208DF813006A
:1003700003208DF8110003A9124800F0B7F80421FA
:10038000084600F065F91020019001208DF80A0060
:1003900000208DF8080010208DF8090001A800F059
:1003A0005BF80A208DF8000000208DF80100012084
:1003B0008DF802008DF80300684600F0EDF805B0F6
:1003C00000BD00000010024010B5082000F030F819
:1003D00040B10548406980F0400003494861082069
:1003E00000F020F810BD00000000024010B5102001
:1003F00000F01EF868B10821084800F0BFF820B9E5
:100400004021074800F0C3F803E04021044800F011
:10041000C0F8102000F006F810BD000000100240E7
:10042000000002400149086070470000143C014090
:10043000014600200022074B1B6803EA0102054B1E
:1004400014331B680B4013B10AB1012000E00020F7
:1004500070470000003C0140002123498279002AB6
:100460003AD00A46126803689A430B461A600A1D7E
:10047000126803689A430B1D1A60027911440A68D6
:1004800003681A430A60184A0832126803689A43DC
:10049000154B08331A601A1D126803689A43124BF1
:1004A0000C331A604279102A0ED11A1F12680368A1
:1004B0001A430D4B08331A601A1D126803681A4359
:1004C000094B0C331A600DE00749427911440A6860
:1004D00003681A430A6005E0027911440A68036858
:1004E0009A430A6070470000003C0140F0B50A469C
:1004F00000210023002400BF3DE0012505FA01F39F
:10050000156805EA03049C4234D105684F000326B0
:10051000BE40B543056015794E00B54006683543C9
:1005200005601579012D02D01579022D16D1856847
:100530004F000326BE40B543856055794E00B54057
:10054000866835438560456801268E40B543456021
:10055000456896798E40B6B235434560C5684F0010
:100560000326BE40B543C560D5794E00B540C66888
:100570003543C560491C1029BFD3F0BD0246002099
:1005800013690B400BB1012000E00020704741834C
:10059000704701837047000070B5002100230F22CF
:1005A000C4781CB3174C246804F4E064C4F5E06418
:1005B000C4F30721C1F10404E3B20A4144789C402A
:1005C000E1B28478144021430C07210E0E4C0578CB
:1005D0006155047804F01F050124AC4005786D11C5
:1005E000AD0005F1E025C5F8004109E0047804F00C
:1005F0001F050124AC40054D0678761145F82640CC
:1006000070BD00000CED00E000E400E080E100E0DF
:1006100029B1064A12680243044B1A6004E0034AF7
:1006200012688243014B1A60704700003038024064
:1006300029B1064A12680243044B1A6004E0034AD7
:1006400012688243014B1A60704700004438024030
:1006500030B500228B071C0F0F2303FA04F20B4B5B
:100660008C1053F824309343084C8D1044F82530F7
:1006700023468C1053F824308C07240F00FA04F41E
:100680002343024C8D1044F8253030BD083801401A
:100690001448006840F4700012490860124800686D
:1006A00040F001001049086000200F49083108603F
:1006B0000D4800680D4908400B4908600C48091DA9
:1006C0000860081F006820F48020091F08600020CF
:1006D00005490C3108604FF000600249803908601C
:1006E0007047000088ED00E000380240FFFFF6FE92
:1006F000103000241CB501210846FFF789FFC020F7
:10070000009001208DF8040000208DF806000320E1
:100710008DF8050000208DF8070069460148FFF7B5
:10072000E5FE1CBD00000240FFF7B2FFFFF7E2FF4D
:10073000FFF7CAFDFFF708FE0348406900200249A1
:10074000486100BFFEE70000000002404FF040702B
:10075000E1EE100A70470000680700080000002062
:0807600060060000C40100085E
:040000050800018965
:00000001FF
