:020000040800F2
:1000000078060020290200083102000833020008A7
:10001000350200083702000839020008000000001D
:100020000000000000000000000000003B0200088B
:100030003D020008000000003F020008A10800087F
:10004000430200084302000843020008430200087C
:10005000430200084302000843020008430200086C
:100060004302000849040008810400084302000814
:10007000430200084302000843020008430200084C
:10008000430200084302000843020008430200083C
:10009000430200084302000843020008430200082C
:1000A000430200084302000843020008430200081C
:1000B000CD0900084302000843020008430200087B
:1000C00043020008430200084302000843020008FC
:1000D00043020008430200084302000843020008EC
:1000E00043020008430200084302000843020008DC
:1000F00043020008430200084302000843020008CC
:1001000043020008430200084302000843020008BB
:1001100043020008430200084302000843020008AB
:10012000430200084302000843020008430200089B
:10013000430200084302000843020008430200088B
:10014000430200084302000843020008430200087B
:10015000430200084302000843020008430200086B
:10016000430200084302000843020008430200085B
:100170004302000843020008430200080000000098
:10018000430200084302000800F002F800F03CF8C7
:100190000AA090E8000C82448344AAF10107DA45E2
:1001A00001D100F031F8AFF2090EBAE80F0013F0F8
:1001B000010F18BFFB1A43F001031847E40C0000BD
:1001C000040D0000103A24BF78C878C1FAD852074D
:1001D00024BF30C830C144BF04680C6070470000C1
:1001E0000023002400250026103A28BF78C1FBD840
:1001F000520728BF30C148BF0B6070471FB500F0E1
:100200003DFE1FBD10B510BD00F031F81146FFF7DF
:10021000F5FF00F0D7FC00F04FF803B4FFF7F2FF52
:1002200003BC00F057F80000094880470948004720
:10023000FEE7FEE7FEE7FEE7FEE7FEE7FEE7FEE796
:10024000FEE7FEE704480549054A064B70470000F3
:10025000690900088901000878000020780600205C
:10026000780200207802002070477047704775467A
:1002700000F02CF8AE4605006946534620F0070012
:10028000854618B020B5FFF7DDFFBDE820404FF0F0
:1002900000064FF000074FF000084FF0000B21F070
:1002A0000701AC46ACE8C009ACE8C009ACE8C0093D
:1002B000ACE8C0098D46704710B50446AFF3008026
:1002C0002046BDE81040FFF7A8BF00000048704777
:1002D0001400002001491820ABBEFEE726000200F2
:1002E000704738B500F00CFA012000F059FA00F020
:1002F0009BFA0446012C24D1072002234FF4A87254
:1003000008210090C80400F071FA012000F068FA9A
:1003100000BF392000F018FA0028FAD0052000F0BC
:1003200025F9002000F030FA4FF4A05000F040FA18
:100330004FF4805000F048FA022000F069FA0120E2
:1003400038BD0020FCE7000000B585B00121102079
:1003500000F0A6F90121880300F0C2F900208DF811
:1003600010008DF812000820039001208DF8130072
:1003700003208DF8110003A9124800F0FDF80321B5
:10038000042000F06DFA0820019001208DF80A0089
:1003900000208DF808000C208DF8090001A800F05D
:1003A0009BF809208DF8000003208DF80100002043
:1003B0008DF8020001208DF80300684600F034F942
:1003C00005B000BD0010024000B585B0012110202D
:1003D00000F066F90121880300F082F900208DF811
:1003E00010008DF812001020039001208DF81300EA
:1003F00003208DF8110003A9124800F0BDF8042174
:10040000084600F02DFA1020019001208DF80A0016
:1004100000208DF808000C208DF8090001A800F0DC
:100420005BF80A208DF8000000208DF801008DF89F
:10043000020001208DF80300684600F0F5F805B0D1
:1004400000BD00000010024010B5082000F030F898
:1004500078B10020074908700821074800F0D4F857
:1004600020B906480078401C04490870082000F0B4
:1004700019F810BD07000020001002400400002001
:1004800010B5102000F014F848B10121880700F0E1
:10049000C0FA002002490870102000F003F810BDD7
:1004A000040000200149086070470000143C01402E
:1004B000014600200022074B1B6803EA0102054B9E
:1004C00014331B680B4013B10AB1012000E0002077
:1004D00070470000003C0140002123498279002A36
:1004E0003AD00A46126803689A430B461A600A1DFE
:1004F000126803689A430B1D1A60027911440A6856
:1005000003681A430A60184A0832126803689A435B
:10051000154B08331A601A1D126803689A43124B70
:100520000C331A604279102A0ED11A1F1268036820
:100530001A430D4B08331A601A1D126803681A43D8
:10054000094B0C331A600DE00749427911440A68DF
:1005500003681A430A6005E0027911440A680368D7
:100560009A430A6070470000003C0140014A107045
:1005700070470000003C0240F0B50A46002100230D
:10058000002400BF3DE0012505FA01F3156805EAE6
:1005900003049C4234D105684F000326BE40B54396
:1005A000056015794E00B54006683543056015793C
:1005B000012D02D01579022D16D185684F00032632
:1005C000BE40B543856055794E00B54086683543D9
:1005D0008560456801268E40B5434560456896793B
:1005E0008E40B6B235434560C5684F000326BE4015
:1005F000B543C560D5794E00B540C6683543C56082
:10060000491C1029BFD3F0BD0246002013690B40DE
:100610000BB1012000E00020704741837047426920
:100620004A4042617047000070B5002100230F224C
:10063000C4781CB3174C246804F4E064C4F5E06487
:10064000C4F30721C1F10404E3B20A4144789C4099
:10065000E1B28478144021430C07210E0E4C05783A
:100660006155047804F01F050124AC4005786D1134
:10067000AD0005F1E025C5F8004109E0047804F07B
:100680001F050124AC40054D0678761145F826403B
:1006900070BD00000CED00E000E400E080E100E04F
:1006A00029B1064A12680243044B1A6004E0034A67
:1006B00012688243014B1A607047000030380240D4
:1006C00029B1064A12680243044B1A6004E0034A47
:1006D00012688243014B1A607047000040380240A4
:1006E00029B1064A12680243044B1A6004E0034A27
:1006F00012688243014B1A60704700004438024080
:100700000E48006840F001000C49086000200B49C9
:10071000083108600948006809490840074908602D
:100720000848091D0860081F006820F48020091F80
:100730000860002001490C31086070470038024011
:10074000FFFFF6FE1030002410B501460022002302
:1007500000204A11012A02D10A4C236808E0022A2B
:1007600003D1084C7034236802E0064C74342368CB
:1007700001F01F02012494401C400CB1012000E054
:10078000002010BD0038024001460020034A1068D6
:1007900020F0F00008431060704700000838024065
:1007A0000021024A11701146087070470238024059
:1007B00001460020034A106820F4E050084310600E
:1007C000704700000838024001460020034A1068C4
:1007D00020F4604040EAC1001060704708380240D1
:1007E00001490866704700000000474270B5049C4C
:1007F00041EA82150126C6EB530645EA0645054344
:1008000045EA0465014E356070BD000004380240C1
:1008100001460020034A106820F0030008431060DE
:10082000704700000838024038B5002000900024CE
:10083000002500BF3120FFF787FF05460098401CC8
:1008400000900098B0F5A06F01D0002DF2D03120BB
:10085000FFF77AFF08B1012400E00024204638BDEC
:1008600030B500228B071C0F0F2303FA04F20B4B49
:100870008C1053F824309343084C8D1044F82530E5
:1008800023468C1053F824308C07240F00FA04F40C
:100890002343024C8D1044F8253030BD0838014008
:1008A00010B500F04FF910BD70B5002000220223F2
:1008B00000240221274D2D6805F00C0020B10428EA
:1008C00006D0082834D107E0234D244E356033E0AC
:1008D000234D224E35602FE01E4D2D1F2D68C5F390
:1008E00080541C4D2D1F2D6805F03F0154B11C4D47
:1008F000B5FBF1F5174E361F3668C6F3881605FBB3
:1009000006F209E0144DB5FBF1F5124E361F3668BC
:10091000C6F3881605FB06F20E4D2D1F2D68C5F394
:1009200001456D1C6B00B2FBF3F50C4E356003E026
:10093000094D0A4E356000BF00BF064D2D68C5F356
:100940000315084E705D054D2D68C540034E35609A
:1009500070BD0000083802400024F40010000020A0
:1009600000127A00860E00081448006840F47000F7
:10097000124908601248006840F001001049086000
:1009800000200F49083108600D4800680D490840F3
:100990000B4908600C48091D0860081F006820F416
:1009A0008020091F0860002005490C3108604FF0C5
:1009B00000600249803908607047000088ED00E05F
:1009C00000380240FFFFF6FE1030002410B5012170
:1009D000880700F02AF898B101200A4908704021E0
:1009E0000948FFF71AFE80210748FFF716FE00218D
:1009F0004FF0804000F00DF80121880700F006F864
:100A000010BD00000700002000000240CA4302821F
:100A1000704721B1028842F00102028004E002889E
:100A20004FF6FE731A400280704730B50246002030
:100A300000230024158A05EA0103958905EA0104CB
:100A400013B10CB1012000E0002030BD1FB5012121
:100A50000846FFF735FE42F2CF00ADF8040047F23A
:100A60002F5002900020ADF80C00ADF8060001A94F
:100A70004FF0804000F024F801221146900700F06A
:100A800015F800214FF08040FFF7C3FF1C208DF8C0
:100A9000000001208DF8010000208DF802000120E7
:100AA0008DF803006846FFF7BFFD1FBD1AB18389AB
:100AB0000B43838102E083898B438381704700006D
:100AC00000220288184B98420ED0184B98420BD047
:100AD000B0F1804F08D0164B984205D0154B984284
:100AE00002D0154B984204D14FF68F731A404B88B1
:100AF0001A43124B984207D0114B984204D04FF63C
:100B0000FF431A400B891A4302804B68C3620B886B
:100B10000385054B984202D0044B984201D18B7A51
:100B200003860123838270470000014000040140D6
:100B30000004004000080040000C0040001000408D
:100B4000001400400448006820B103480068401EBB
:100B500001490860704700000000002001B5044909
:100B60000098086000BF024800680028FBD108BD5B
:100B70000000002010B501210846FFF791FDC020BC
:100B80000D49086001200871002088710320487118
:100B90000020C8710948FFF7EFFC01211020FFF782
:100BA0007FFD182004490860002008710120C871E9
:100BB0000348FFF7E1FC10BD0800002000000240E0
:100BC00000100240FFF770FEA64800684FF47A72EA
:100BD000B0FBF2F1481EB0F1807F01D301201BE091
:100BE000481E4FF0E022506150170F22002807DA0C
:100BF00013071D0E9C4B00F00F04241F1D5503E02E
:100C000013071C0E994B1C5400BF00204FF0E0222C
:100C1000906107201061002008B100BFFEE7FFF7D8
:100C2000A9FFFFF75EFBFFF78FFBFFF7CDFBFFF799
:100C30000DFF16E114E10EE18D480078801E0828B2
:100C40007ED2DFE800F0041D364F688FB4D98021D2
:100C50008848FFF7E4FC4FF47A70FFF77FFF8021AC
:100C60008448FFF7DCFC4FF47A70FFF777FF8021B0
:100C70008048FFF7D4FC4FF47A70FFF76FFFE9E08C
:100C800040217C48FFF7CBFC4FF47A70FFF766FFFA
:100C900040217848FFF7C3FC4FF47A70FFF75EFFFE
:100CA00040217448FFF7BBFC4FF47A70FFF756FF02
:100CB000D0E040216F48FFF7B2FC4FF47A70FFF7A5
:100CC0004DFF40216B48FFF7AAFC4FF47A70FFF705
:100CD00045FF40216748FFF7A2FC4FF47A70FFF709
:100CE0003DFFB7E040216348FFF799FC4FF47A706D
:100CF000FFF734FF40215F48FFF791FC4FF47A7013
:100D0000FFF72CFF40215B48FFF789FC4FF47A7016
:100D1000FFF724FF9EE040215648FFF780FC80212A
:100D20005448FFF77CFC4FF47A70FFF717FF40211F
:100D30005048FFF774FC80214E48FFF770FC00E03C
:100D40007FE04FF47A70FFF709FF40214948FFF731
:100D500066FC80214748FFF762FC4FF47A70FFF78A
:100D6000FDFE77E040214348FFF759FC80214148D0
:100D7000FFF755FC4FF47A70FFF7F0FE40213D4835
:100D8000FFF74DFC80213B48FFF749FC4FF47A7098
:100D9000FFF7E4FE40213748FFF741FC802135484A
:100DA000FFF73DFC4FF47A70FFF7D8FE52E0402188
:100DB0003048FFF734FC80212E48FFF730FC4FF419
:100DC0007A70FFF7CBFE40212A48FFF728FC8021EC
:100DD0002848FFF724FC4FF47A70FFF7BFFE40214C
:100DE0002448FFF71CFC80212248FFF718FC4FF431
:100DF0007A70FFF7B3FE2DE040211E48FFF70FFC8D
:100E000080211C48FFF70BFC4FF47A70FFF7A6FE19
:100E100040211848FFF703FC80211648FFF7FFFB2D
:100E20004FF47A70FFF79AFE40211248FFF7F7FB64
:100E300080211048FFF7F3FB4FF47A70FFF78EFE26
:100E400008E040210B48FFF7E8FB80210948FFF745
:100E5000E4FB00BF00BF0848007801283FF4ECAE77
:100E6000E9E6E7E61000002018ED00E000E400E00D
:100E70000400002000000240070000204FF04070F6
:100E8000E1EE100A704700000000000000000102BF
:100E90000304060708090000000001020304000023
:100EA000C00E00080000002014000000C40100086B
:100EB000D40E00081400002064060000E0010008C1
:100EC0000000000000000001000000000000000021
:040ED0000024F40006
:040000050800018965
:00000001FF
