:020000040800F2
:100000008806002029020008310200083302000897
:10001000350200083702000839020008000000001D
:100020000000000000000000000000003B0200088B
:100030003D020008000000003F0200085D080008C3
:10004000430200084302000843020008430200087C
:10005000430200084302000843020008430200086C
:1000600043020008E50300081504000843020008E5
:10007000430200084302000843020008430200084C
:10008000430200084302000843020008430200083C
:10009000430200084302000843020008430200082C
:1000A000430200084302000843020008430200081C
:1000B000E9090008910A0008430200084302000809
:1000C00043020008430200084302000843020008FC
:1000D00043020008430200084302000843020008EC
:1000E00043020008430200084302000843020008DC
:1000F00043020008430200084302000843020008CC
:1001000043020008430200084302000843020008BB
:1001100043020008430200084302000843020008AB
:10012000430200084302000843020008430200089B
:10013000430200084302000843020008430200088B
:10014000430200084302000843020008430200087B
:10015000430200084302000843020008430200086B
:10016000430200084302000843020008430200085B
:100170004302000843020008430200080000000098
:10018000430200084302000800F002F800F03CF8C7
:100190000AA090E8000C82448344AAF10107DA45E2
:1001A00001D100F031F8AFF2090EBAE80F0013F0F8
:1001B000010F18BFFB1A43F001031847E00D0000C0
:1001C000000E0000103A24BF78C878C1FAD8520750
:1001D00024BF30C830C144BF04680C6070470000C1
:1001E0000023002400250026103A28BF78C1FBD840
:1001F000520728BF30C148BF0B6070471FB500F0E1
:10020000BBFE1FBD10B510BD00F031F81146FFF761
:10021000F5FF00F031FD00F04FF803B4FFF7F2FFF7
:1002200003BC00F057F80000094880470948004720
:10023000FEE7FEE7FEE7FEE7FEE7FEE7FEE7FEE796
:10024000FEE7FEE704480549054A064B70470000F3
:100250002509000889010008880000208806002080
:10026000880200208802002070477047704775465A
:1002700000F02CF8AE4605006946534620F0070012
:10028000854618B020B5FFF7DDFFBDE820404FF0F0
:1002900000064FF000074FF000084FF0000B21F070
:1002A0000701AC46ACE8C009ACE8C009ACE8C0093D
:1002B000ACE8C0098D46704710B50446AFF3008026
:1002C0002046BDE81040FFF7A8BF00000048704777
:1002D0002800002001491820ABBEFEE726000200DE
:1002E0007047000000B585B00121102000F0B6F97C
:1002F0000121880300F0D2F900208DF810008DF85C
:1003000012000820039001208DF8130003208DF8BF
:10031000110003A9124800F017F90321042000F08E
:100320007DFA0820019001208DF80A0000208DF848
:1003300008000C208DF8090001A800F0B5F809208C
:100340008DF8000000208DF801008DF802000120DA
:100350008DF80300684600F045F905B000BD0000C7
:100360000010024000B585B00121102000F076F9A0
:100370000121880300F092F900208DF810008DF81B
:1003800012001020039001208DF8130003208DF837
:10039000110003A9124800F0D7F80421084600F024
:1003A0003DFA1020019001208DF80A0000208DF800
:1003B000080010208DF8090001A800F075F80A2047
:1003C0008DF8000000208DF8010001208DF802005A
:1003D0008DF80300684600F005F905B000BD000087
:1003E0000010024010B5082000F04AF860B108483B
:1003F0000068401C0649086008460068012803D1CF
:100400000121800700F05BFB082000F033F810BDED
:100410000C00002010B5102000F032F8F0B11148A7
:100420000068401C0F49086008460068012806D192
:1004300001210D4800F043FB00200C4908600948E9
:10044000006802280AD10021074800F038FB00208C
:10045000044908600548006805490860102000F05C
:1004600009F810BD10000020000400401400002016
:10047000180000200149086070470000143C01404A
:10048000014600200022074B1B6803EA0102054BCE
:1004900014331B680B4013B10AB1012000E00020A7
:1004A00070470000003C0140002123498279002A66
:1004B0003AD00A46126803689A430B461A600A1D2E
:1004C000126803689A430B1D1A60027911440A6886
:1004D00003681A430A60184A0832126803689A438C
:1004E000154B08331A601A1D126803689A43124BA1
:1004F0000C331A604279102A0ED11A1F1268036851
:100500001A430D4B08331A601A1D126803681A4308
:10051000094B0C331A600DE00749427911440A680F
:1005200003681A430A6005E0027911440A68036807
:100530009A430A6070470000003C0140014A107075
:1005400070470000003C0240F0B50A46002100233D
:10055000002400BF3DE0012505FA01F3156805EA16
:1005600003049C4234D105684F000326BE40B543C6
:10057000056015794E00B54006683543056015796C
:10058000012D02D01579022D16D185684F00032662
:10059000BE40B543856055794E00B5408668354309
:1005A0008560456801268E40B5434560456896796B
:1005B0008E40B6B235434560C5684F000326BE4045
:1005C000B543C560D5794E00B540C6683543C560B2
:1005D000491C1029BFD3F0BD4183704742694A408E
:1005E0004261704770B5002100230F22C4781CB30C
:1005F000174C246804F4E064C4F5E064C4F30721F4
:10060000C1F10404E3B20A4144789C40E1B2847829
:10061000144021430C07210E0E4C057861550478D7
:1006200004F01F050124AC4005786D11AD0005F103
:10063000E025C5F8004109E0047804F01F05012415
:10064000AC40054D0678761145F8264070BD000097
:100650000CED00E000E400E080E100E029B1064A92
:1006600012680243044B1A6004E0034A1268824392
:10067000014B1A60704700003038024029B1064A29
:1006800012680243044B1A6004E0034A1268824372
:10069000014B1A60704700004038024029B1064AF9
:1006A00012680243044B1A6004E0034A1268824352
:1006B000014B1A6070470000443802400E48006841
:1006C00040F001000C49086000200B490831086027
:1006D0000948006809490840074908600848091D99
:1006E0000860081F006820F48020091F08600020AF
:1006F00001490C310860704700380240FFFFF6FEE8
:100700001030002410B501460022002300204A11B9
:10071000012A02D10A4C236808E0022A03D1084CBE
:100720007034236802E0064C7434236801F01F0221
:10073000012494401C400CB1012000E0002010BDB9
:100740000038024001460020034A106820F0F00003
:100750000843106070470000083802400021024A38
:10076000117011460870704702380240014600209F
:10077000034A106820F4E0500843106070470000FE
:100780000838024001460020034A106820F4604007
:1007900040EAC1001060704708380240014908660D
:1007A000704700000000474270B5049C41EA821582
:1007B0000126C6EB530645EA0645054345EA0465AE
:1007C000014E356070BD0000043802400146002033
:1007D000034A106820F003000843106070470000CF
:1007E0000838024038B5002000900024002500BFE2
:1007F0003120FFF787FF05460098401C00900098C5
:10080000B0F5A06F01D0002DF2D03120FFF77AFFB4
:1008100008B1012400E00024204638BD30B5002294
:100820008B071C0F0F2303FA04F20B4B8C1053F8A9
:1008300024309343084C8D1044F8253023468C1007
:1008400053F824308C07240F00FA04F42343024C9D
:100850008D1044F8253030BD0838014010B500F047
:1008600097F910BD70B50020002202230024022158
:10087000274D2D6805F00C0020B1042806D008286B
:1008800034D107E0234D244E356033E0234D224E12
:1008900035602FE01E4D2D1F2D68C5F380541C4D73
:1008A0002D1F2D6805F03F0154B11C4DB5FBF1F52E
:1008B000174E361F3668C6F3881605FB06F209E0A8
:1008C000144DB5FBF1F5124E361F3668C6F3881687
:1008D00005FB06F20E4D2D1F2D68C5F301456D1C5D
:1008E0006B00B2FBF3F50C4E356003E0094D0A4E88
:1008F000356000BF00BF064D2D68C5F30315084ED7
:10090000705D054D2D68C540034E356070BD00001B
:10091000083802400024F4002400002000127A006D
:10092000820F00081448006840F470001249086003
:100930001248006840F001001049086000200F498B
:10094000083108600D4800680D4908400B490860EF
:100950000C48091D0860081F006820F48020091F4A
:100960000860002005490C3108604FF00060024922
:10097000803908607047000088ED00E000380240D0
:10098000FFFFF6FE103000241FB501210846FFF7D7
:1009900075FE42F2CF00ADF8040047F22F500290EE
:1009A0000020ADF80C00ADF8060001A94FF0804022
:1009B00000F0ACF801221146900700F09DF80021EC
:1009C0004FF0804000F07BF81C208DF800000120E3
:1009D0008DF8010000208DF8020001208DF8030041
:1009E0006846FFF7FFFD1FBD10B50121880700F025
:1009F00072F8B8B180210C48FFF7EEFD40210A489B
:100A0000FFF7EAFD00214FF0804000F058F807485A
:100A10000068074908600020044908600121880730
:100A200000F04AF810BD0000000002400C00002059
:100A3000040000201FB501210220FFF71FFE40F235
:100A40004730ADF80400632002900020ADF80C00A0
:100A5000ADF8060001A90D4800F058F80122114632
:100A60000A4800F049F80021084800F028F81D2045
:100A70008DF8000001208DF801008DF802008DF83E
:100A800003006846FFF7AEFD1FBD000000040040F4
:100A900010B50121064800F01EF840B10548006875
:100AA000401C044908600121014800F005F810BD10
:100AB0000004004014000020CA430282704721B1A4
:100AC000028842F00102028004E002884FF6FE73C1
:100AD0001A400280704730B50246002000230024EF
:100AE000158A05EA0103958905EA010413B10CB1E1
:100AF000012000E0002030BD1AB183890B438381BF
:100B000002E083898B4383817047000000220288C2
:100B1000184B98420ED0184B98420BD0B0F1804F32
:100B200008D0164B984205D0154B984202D0154B71
:100B3000984204D14FF68F731A404B881A43124BD8
:100B4000984207D0114B984204D04FF6FF431A4009
:100B50000B891A4302804B68C3620B880385054BDF
:100B6000984202D0044B984201D18B7A038601232C
:100B700083827047000001400004014000040040EF
:100B800000080040000C004000100040001400402D
:100B90000448006820B103480068401E014908600D
:100BA000704700000000002001B50449009808606B
:100BB00000BF024800680028FBD108BD00000020EB
:100BC00038B5FFF77BFD0120FFF7C8FDFFF70AFEF0
:100BD0000446012C23D1072002234FF4A8720821D8
:100BE0000090C804FFF7E0FD0120FFF7D7FD00BF2C
:100BF0003920FFF787FD0028FAD00520FFF79EFC7B
:100C00000020FFF79FFD4FF4A050FFF7AFFD4FF41A
:100C10008050FFF7B7FD0220FFF7D8FD01E000BFCD
:100C2000FEE7FFF71FFE38BD10B501210846FFF7AC
:100C300015FDC0200D490860012008710020887151
:100C4000032048710020C8710948FFF77DFC01218D
:100C50001020FFF703FD18200449086000200871E8
:100C60000120C8710348FFF76FFC10BD1C00002075
:100C70000000024000100240FFF7A2FFFFF7F2FD64
:100C8000B74800684FF47A72B0FBF2F1481EB0F139
:100C9000807F01D301201BE0481E4FF0E02250610D
:100CA00050170F22002807DA13071D0EAD4B00F076
:100CB0000F04241F1D5503E013071C0EAA4B1C54E0
:100CC00000BF00204FF0E02290610720106100205B
:100CD00008B100BFFEE7FFF7A7FFFFF703FBFFF731
:100CE00041FBFFF751FEFFF7A5FE38E13CE09F48CE
:100CF0000068C82808D280219D48FFF76DFC40217C
:100D00009B48FFF769FC2FE098480068B0F57A7FB0
:100D100015D240219648FFF761FC6420FFF744FF9D
:100D200040219348FFF75AFC6420FFF73DFF402124
:100D30008F48FFF753FC6420FFF736FF14E0802153
:100D40008B48FFF74BFC6420FFF72EFF802188487B
:100D5000FFF744FC6420FFF727FF80218448FFF75A
:100D60003DFC6420FFF720FF804800680028BED1CA
:100D700080480068801E08287DD2DFE800F0041A51
:100D800030465C80A2C480217948FFF727FC6420AC
:100D9000FFF70AFF80217648FFF720FC6420FFF769
:100DA00003FF80217248FFF719FC6420FFF7FCFE67
:100DB000D4E040216E48FFF711FC6420FFF7F4FEF9
:100DC00040216B48FFF70AFC6420FFF7EDFE40214D
:100DD0006748FFF703FC6420FFF7E6FEBEE0402112
:100DE0006348FFF7FBFB6420FFF7DEFE402160480D
:100DF000FFF7F4FB6420FFF7D7FE40215C48FFF7C4
:100E0000EDFB6420FFF7D0FEA8E040215848FFF733
:100E1000E5FB6420FFF7C8FE40215548FFF7DEFBE5
:100E20006420FFF7C1FE40215148FFF7D7FB642043
:100E3000FFF7BAFE92E040214D48FFF7CFFB80213B
:100E40004B48FFF7CBFB6420FFF7AEFE402148483C
:100E5000FFF7C4FB80214648FFF7C0FB6420FFF783
:100E6000A3FE40214248FFF7B9FB80214048FFF72D
:100E7000B5FB642000E068E0FFF796FE6EE04021DD
:100E80003B48FFF7ABFB80213948FFF7A7FB642005
:100E9000FFF78AFE40213648FFF7A0FB8021344847
:100EA000FFF79CFB6420FFF77FFE40213048FFF7EF
:100EB00095FB80212E48FFF791FB6420FFF774FE1D
:100EC0004CE040212A48FFF789FB80212848FFF7A2
:100ED00085FB6420FFF768FE40212548FFF77EFB75
:100EE00080212348FFF77AFB6420FFF75DFE402155
:100EF0001F48FFF773FB80211D48FFF76FFB64203D
:100F0000FFF752FE2AE040211948FFF767FB8021D6
:100F10001748FFF763FB6420FFF746FE40211448A3
:100F2000FFF75CFB80211248FFF758FB6420FFF7B6
:100F30003BFE40210E48FFF751FB80210C48FFF794
:100F40004DFB6420FFF730FE08E080210848FFF7E2
:100F500043FB40210648FFF73FFB00BF00BFC5E64B
:100F60002400002018ED00E000E400E0180000205C
:100F700000000240040000204FF04070E1EE100A33
:100F80007047000000000000000001020304060793
:100F9000080900000000010203040000BC0F000863
:100FA0000000002028000000C4010008E40F000831
:100FB0002800002060060000E0010008000000009A
:100FC0000000000000000000000000000000000021
:100FD0000000000000000000000000000000000011
:040FE0000024F400F5
:040000050800018965
:00000001FF
