:020000040800F2
:1000000070060020290200083102000833020008AF
:10001000350200083702000839020008000000001D
:100020000000000000000000000000003B0200088B
:100030003D020008000000003F020008D105000852
:10004000430200084302000843020008430200087C
:10005000430200084302000843020008430200086C
:10006000430200084302000843020008430200085C
:10007000430200084302000843020008430200084C
:10008000430200084302000843020008430200083C
:10009000430200084302000843020008430200082C
:1000A000430200084302000843020008430200081C
:1000B000430200084302000843020008430200080C
:1000C00043020008430200084302000843020008FC
:1000D00043020008430200084302000843020008EC
:1000E00043020008430200084302000843020008DC
:1000F00043020008430200084302000843020008CC
:1001000043020008430200084302000843020008BB
:1001100043020008430200084302000843020008AB
:10012000430200084302000843020008430200089B
:10013000430200084302000843020008430200088B
:10014000430200084302000843020008430200087B
:10015000430200084302000843020008430200086B
:10016000430200084302000843020008430200085B
:100170004302000843020008430200080000000098
:10018000430200084302000800F002F800F03CF8C7
:100190000AA090E8000C82448344AAF10107DA45E2
:1001A00001D100F031F8AFF2090EBAE80F0013F0F8
:1001B000010F18BFFB1A43F0010318477408000031
:1001C00094080000103A24BF78C878C1FAD85207C2
:1001D00024BF30C830C144BF04680C6070470000C1
:1001E0000023002400250026103A28BF78C1FBD840
:1001F000520728BF30C148BF0B6070471FB500F0E1
:1002000005FC1FBD10B510BD00F031F81146FFF719
:10021000F5FF00F08BFB00F04FF803B4FFF7F2FF9F
:1002200003BC00F057F80000094880470948004720
:10023000FEE7FEE7FEE7FEE7FEE7FEE7FEE7FEE796
:10024000FEE7FEE704480549054A064B70470000F3
:10025000990600088901000870000020700600203F
:10026000700200207002002070477047704775468A
:1002700000F02CF8AE4605006946534620F0070012
:10028000854618B020B5FFF7DDFFBDE820404FF0F0
:1002900000064FF000074FF000084FF0000B21F070
:1002A0000701AC46ACE8C009ACE8C009ACE8C0093D
:1002B000ACE8C0098D46704710B50446AFF3008026
:1002C0002046BDE81040FFF7A8BF00000048704777
:1002D0000C00002001491820ABBEFEE726000200FA
:1002E00070470000014A107070470000003C024057
:1002F000F0B50A4600210023002400BF3DE001259F
:1003000005FA01F3156805EA03049C4234D1056837
:100310004F000326BE40B543056015794E00B54039
:100320000668354305601579012D02D01579022D37
:1003300016D185684F000326BE40B54385605579C8
:100340004E00B540866835438560456801268E407D
:10035000B5434560456896798E40B6B235434560F1
:10036000C5684F000326BE40B543C560D5794E0031
:10037000B540C6683543C560491C1029BFD3F0BDE0
:10038000F0B5002300244D07ED0E02FA05F3CE1060
:1003900000F1200555F826504E07F70E0F26BE40F7
:1003A000B543CF1000F1200646F82750CE1000F1DB
:1003B000200555F8265045EA0304CE1000F120052B
:1003C00045F82640F0BD000029B1064A12680243F4
:1003D000044B1A6004E0034A12688243014B1A601E
:1003E000704700003038024029B1064A12680243C3
:1003F000044B1A6004E0034A12688243014B1A60FE
:1004000070470000403802400E48006840F001008C
:100410000C49086000200B49083108600948006851
:1004200009490840074908600848091D0860081F75
:10043000006820F48020091F0860002001490C3169
:100440000860704700380240FFFFF6FE10300024BD
:1004500010B501460022002300204A11012A02D1D2
:100460000A4C236808E0022A03D1084C7034236840
:1004700002E0064C7434236801F01F02012494400A
:100480001C400CB1012000E0002010BD00380240EB
:1004900001460020034A106820F0F0000843106075
:1004A00070470000083802400021024A11701146CE
:1004B000087070470238024001460020034A106865
:1004C00020F4E050084310607047000008380240F4
:1004D00001460020034A106820F4604040EAC10051
:1004E00010607047083802400149086670470000F4
:1004F0000000474270B5049C41EA82150126C6EB14
:10050000530645EA0645054345EA0465014E356054
:1005100070BD00000438024001460020034A106804
:1005200020F00300084310607047000008380240C4
:1005300038B5002000900024002500BF3120FFF7CF
:1005400087FF05460098401C00900098B0F5A06F0A
:1005500001D0002DF2D03120FFF77AFF08B101243D
:1005600000E00024204638BD30B589B00446164866
:10057000B0FBF4F0451E01210820FFF735FF0020F5
:10058000ADF81800ADF81A000795ADF820008DF809
:10059000220006A90D4800F01DF901210B4800F0CA
:1005A000ADF87020ADF804000120ADF8060002207F
:1005B000ADF8100001A9054800F0ACF80821034887
:1005C00000F0FAF809B030BD00BD0105000C004094
:1005D00010B500F041F910BD70B5002000220223D3
:1005E00000240221274D2D6805F00C0020B10428BD
:1005F00006D0082834D107E0234D244E356033E07F
:10060000234D224E35602FE01E4D2D1F2D68C5F362
:1006100080541C4D2D1F2D6805F03F0154B11C4D19
:10062000B5FBF1F5174E361F3668C6F3881605FB85
:1006300006F209E0144DB5FBF1F5124E361F36688F
:10064000C6F3881605FB06F20E4D2D1F2D68C5F367
:1006500001456D1C6B00B2FBF3F50C4E356003E0F9
:10066000094D0A4E356000BF00BF064D2D68C5F329
:100670000315084E705D054D2D68C540034E35606D
:1006800070BD0000083802400024F400080000207B
:1006900000127A00160A00081448006840F470003E
:1006A000124908601248006840F0010010490860D3
:1006B00000200F49083108600D4800680D490840C6
:1006C0000B4908600C48091D0860081F006820F4E9
:1006D0008020091F0860002005490C3108604FF098
:1006E00000600249803908607047000088ED00E032
:1006F00000380240FFFFF6FE1030002421B10288CE
:1007000042F00102028004E002884FF6FE731A40B4
:100710000280704770B5002400220023058C4FF63C
:10072000EF7635400584028C8388048B48F6FF758C
:100730002C404FF6FF452C400D884FF6FF7606EA19
:1007400005252C434FF6DF752A408D8906EA0515ED
:100750002A434D8806EA05152A43154DA84202D0C2
:10076000144DA8421DD14FF67F752A40CD894FF612
:10077000FF7606EA05152A434FF6BF752A408D8895
:1007800006EA05152A434FF6FF352B404FF2FF7559
:100790002B400D8A06EA85052B434D8A06EA85051E
:1007A0002B43838004838D688563028470BD0000C1
:1007B00000000140000401400A460021018B4FF275
:1007C000FF7319404FF6FF7303EA022319430183B5
:1007D0007047000000220288184B98420ED0184B38
:1007E00098420BD0B0F1804F08D0164B984205D0FC
:1007F000154B984202D0154B984204D14FF68F7397
:100800001A404B881A43124B984207D0114B98421A
:1008100004D04FF6FF431A400B891A4302804B68FD
:10082000C3620B880385054B984202D0044B984263
:1008300001D18B7A03860123838270470000014037
:10084000000401400004004000080040000C00408B
:1008500000100040001400400448006820B1034824
:100860000068401E01490860704700000400002035
:1008700001B504490098086000BF024800680028DC
:10088000FBD108BD040000201CB501210846FFF77C
:100890009BFD022201210A48FFF772FD0220009011
:1008A00000208DF806008DF8070002208DF8040066
:1008B00003208DF8050069460148FFF719FD1CBDAE
:1008C0000000024038B5FFF79FFD0120FFF7ECFD67
:1008D000FFF72EFE0446012C23D1072002234FF4FC
:1008E000A87208210090C804FFF704FE0120FFF75A
:1008F000FBFD00BF3920FFF7ABFD0028FAD0052033
:10090000FFF7F0FC0020FFF7C3FD4FF4A050FFF706
:10091000D3FD4FF48050FFF7DBFD0220FFF7FCFD15
:1009200001E000BFFEE7FFF757FE38BDFFF7CAFF43
:1009300001210846FFF748FDFFF74EFE2E480068EC
:100940004FF47A72B0FBF2F1481EB0F1807F01D310
:1009500001201BE0481E4FF0E022506150170F228B
:10096000002804DB13071C0E244B1C5406E013075D
:100970001D0E234B00F00F04241F1D5500BF002047
:100980004FF0E022906107201061002008B100BF05
:10099000FEE7FFF779FF42F21070FFF7E5FD29E06F
:1009A0000020184908600BE01648006816490860E6
:1009B0000120FFF75DFF13480068401C11490860E3
:1009C0001048006842F234118842EDD308460D49C0
:1009D00008600BE00B4800680B4908600120FFF736
:1009E00047FF08480068401E06490860054800683F
:1009F0000028EFD1D4E700000800002000E400E068
:100A000018ED00E000000020380C00404FF040706E
:100A1000E1EE100A70470000000000000000010233
:100A20000304060708090000000001020304000097
:100A3000500A0008000000200C000000C40100085B
:100A40005C0A00080C00002064060000E0010008B9
:0C0A500000000000000000000024F40082
:040000050800018965
:00000001FF
