:020000040800F2
:1000000078060020290200083102000833020008A7
:10001000350200083702000839020008000000001D
:100020000000000000000000000000003B0200088B
:100030003D020008000000003F02000875080008AB
:10004000430200084302000843020008430200087C
:10005000430200084302000843020008430200086C
:1000600043020008E50200084302000843020008BA
:10007000430200084302000843020008430200084C
:10008000430200084302000843020008430200083C
:10009000430200084302000843020008430200082C
:1000A000430200084302000843020008430200081C
:1000B000A1090008430200084302000843020008A7
:1000C00043020008430200084302000843020008FC
:1000D00043020008430200084302000843020008EC
:1000E00043020008430200084302000843020008DC
:1000F00043020008430200084302000843020008CC
:1001000043020008430200084302000843020008BB
:1001100043020008430200084302000843020008AB
:10012000430200084302000843020008430200089B
:10013000430200084302000843020008430200088B
:10014000430200084302000843020008430200087B
:10015000430200084302000843020008430200086B
:10016000430200084302000843020008430200085B
:100170004302000843020008430200080000000098
:10018000430200084302000800F002F800F03CF8C7
:100190000AA090E8000C82448344AAF10107DA45E2
:1001A00001D100F031F8AFF2090EBAE80F0013F0F8
:1001B000010F18BFFB1A43F001031847040C00009D
:1001C000240C0000103A24BF78C878C1FAD852072E
:1001D00024BF30C830C144BF04680C6070470000C1
:1001E0000023002400250026103A28BF78C1FBD840
:1001F000520728BF30C148BF0B6070471FB500F0E1
:10020000CEFD1FBD10B510BD00F031F81146FFF74F
:10021000F5FF00F04FFD00F04FF803B4FFF7F2FFD9
:1002200003BC00F057F80000094880470948004720
:10023000FEE7FEE7FEE7FEE7FEE7FEE7FEE7FEE796
:10024000FEE7FEE704480549054A064B70470000F3
:100250003D09000889010008780000207806002088
:10026000780200207802002070477047704775467A
:1002700000F02CF8AE4605006946534620F0070012
:10028000854618B020B5FFF7DDFFBDE820404FF0F0
:1002900000064FF000074FF000084FF0000B21F070
:1002A0000701AC46ACE8C009ACE8C009ACE8C0093D
:1002B000ACE8C0098D46704710B50446AFF3008026
:1002C0002046BDE81040FFF7A8BF00000048704777
:1002D0001400002001491820ABBEFEE726000200F2
:1002E0007047000010B5082000F056F8002843D0F1
:1002F00022480068012807D12148006808B9012078
:1003000000E000201E4908601D48006888B91D48AB
:10031000006842F21C51884206DA1A48006800F56B
:10032000FA701849086012E042F21C501549086042
:100330000DE014480068002806DD12480068A0F5AA
:10034000FA701049086002E000200E4908600D486C
:1003500000680D49086009480068401C07490860AA
:1003600000214FF0804000F068FB0121880700F079
:1003700064FB082000F00AF810BD00000400002013
:100380000000002008000020380C004001490860EF
:1003900070470000143C0140014600200022074B3A
:1003A0001B6803EA0102054B14331B680B4013B1B1
:1003B0000AB1012000E0002070470000003C01402D
:1003C000002123498279002A3AD00A46126803683C
:1003D0009A430B461A600A1D126803689A430B1D64
:1003E0001A60027911440A6803681A430A60184ABD
:1003F0000832126803689A43154B08331A601A1DB5
:10040000126803689A43124B0C331A604279102A1F
:100410000ED11A1F126803681A430D4B08331A6075
:100420001A1D126803681A43094B0C331A600DE059
:100430000749427911440A6803681A430A6005E0D3
:10044000027911440A6803689A430A607047000001
:10045000003C0140014A107070470000003C02401F
:10046000F0B50A4600210023002400BF3DE001252D
:1004700005FA01F3156805EA03049C4234D10568C6
:100480004F000326BE40B543056015794E00B540C8
:100490000668354305601579012D02D01579022DC6
:1004A00016D185684F000326BE40B5438560557957
:1004B0004E00B540866835438560456801268E400C
:1004C000B5434560456896798E40B6B23543456080
:1004D000C5684F000326BE40B543C560D5794E00C0
:1004E000B540C6683543C560491C1029BFD3F0BD6F
:1004F000F0B5002300244D07ED0E02FA05F3CE10EF
:1005000000F1200555F826504E07F70E0F26BE4085
:10051000B543CF1000F1200646F82750CE1000F169
:10052000200555F8265045EA0304CE1000F12005B9
:1005300045F82640F0BD0246002013690B400BB180
:10054000012000E0002070470EB50121880300F073
:100550007DF80321042000F06DF9082001900120AE
:100560008DF80A0000208DF808000C208DF8090095
:1005700001A8FFF725FF09208DF8000000208DF865
:1005800001008DF8020001208DF80300684600F09C
:1005900001F80EBD70B5002100230F22C4781CB3F2
:1005A000174C246804F4E064C4F5E064C4F3072144
:1005B000C1F10404E3B20A4144789C40E1B284787A
:1005C000144021430C07210E0E4C05786155047828
:1005D00004F01F050124AC4005786D11AD0005F154
:1005E000E025C5F8004109E0047804F01F05012466
:1005F000AC40054D0678761145F8264070BD0000E8
:100600000CED00E000E400E080E100E029B1064AE2
:1006100012680243044B1A6004E0034A12688243E2
:10062000014B1A60704700003038024029B1064A79
:1006300012680243044B1A6004E0034A12688243C2
:10064000014B1A60704700004038024029B1064A49
:1006500012680243044B1A6004E0034A12688243A2
:10066000014B1A6070470000443802400E48006891
:1006700040F001000C49086000200B490831086077
:100680000948006809490840074908600848091DE9
:100690000860081F006820F48020091F08600020FF
:1006A00001490C310860704700380240FFFFF6FE38
:1006B0001030002410B501460022002300204A110A
:1006C000012A02D10A4C236808E0022A03D1084C0F
:1006D0007034236802E0064C7434236801F01F0272
:1006E000012494401C400CB1012000E0002010BD0A
:1006F0000038024001460020034A106820F0F00054
:100700000843106070470000083802400021024A88
:1007100011701146087070470238024001460020EF
:10072000034A106820F4E05008431060704700004E
:100730000838024001460020034A106820F4604057
:1007400040EAC1001060704708380240014908665D
:10075000704700000000474270B5049C41EA8215D2
:100760000126C6EB530645EA0645054345EA0465FE
:10077000014E356070BD0000043802400146002083
:10078000034A106820F0030008431060704700001F
:100790000838024038B5002000900024002500BF32
:1007A0003120FFF787FF05460098401C0090009815
:1007B000B0F5A06F01D0002DF2D03120FFF77AFF05
:1007C00008B1012400E00024204638BD30B589B0CE
:1007D00004461648B0FBF4F0451E01210820FFF73F
:1007E00025FF0020ADF81800ADF81A000795ADF808
:1007F00020008DF8220006A90D4800F0A5F901217E
:100800000B4800F01AF97020ADF804000120ADF893
:1008100006000220ADF8100001A9054800F034F9E7
:100820000821034800F082F909B030BD00BD010580
:10083000000C004030B500228B071C0F0F2303FA79
:1008400004F20B4B8C1053F824309343084C8D105A
:1008500044F8253023468C1053F824308C07240F9D
:1008600000FA04F42343024C8D1044F8253030BDC7
:100870000838014010B500F0A9F910BD70B500208E
:100880000022022300240221274D2D6805F00C00D0
:1008900020B1042806D0082834D107E0234D244E87
:1008A000356033E0234D224E35602FE01E4D2D1F65
:1008B0002D68C5F380541C4D2D1F2D6805F03F0198
:1008C00054B11C4DB5FBF1F5174E361F3668C6F313
:1008D000881605FB06F209E0144DB5FBF1F5124E42
:1008E000361F3668C6F3881605FB06F20E4D2D1F1F
:1008F0002D68C5F301456D1C6B00B2FBF3F50C4E82
:10090000356003E0094D0A4E356000BF00BF064D5B
:100910002D68C5F30315084E705D054D2D68C54063
:10092000034E356070BD0000083802400024F4001A
:100930001000002000127A00A80D0008144800687A
:1009400040F47000124908601248006840F001004D
:100950001049086000200F49083108600D48006800
:100960000D4908400B4908600C48091D0860081F24
:10097000006820F48020091F0860002005490C3120
:1009800008604FF00060024980390860704700003D
:1009900088ED00E000380240FFFFF6FE1030002432
:1009A00010B50121880700F054F8C0B308211C4895
:1009B000FFF7C1FD38BB1B48006888B91A480068BA
:1009C00042F21C51884206DA1748006800F5FA70B6
:1009D0001549086012E042F21C50134908600DE00E
:1009E00011480068002806DD0F480068A0F5FA707D
:1009F0000D49086002E000200B4908600A480068C1
:100A00000A49086007E000214FF0804000F015F827
:100A10000020074908600121880700F00BF810BD8D
:100A2000001002400000002008000020380C0040A8
:100A300004000020CA430282704721B1028842F0BC
:100A40000102028004E002884FF6FE731A40028021
:100A5000704730B50246002000230024158A05EABD
:100A60000103958905EA010413B10CB1012000E0EE
:100A7000002030BD1AB183890B43838102E0838952
:100A80008B4383817047000070B50024002200234F
:100A9000058C4FF6EF7635400584028C8388048BF5
:100AA00048F6FF752C404FF6FF452C400D884FF659
:100AB000FF7606EA05252C434FF6DF752A408D891F
:100AC00006EA05152A434D8806EA05152A43154D01
:100AD000A84202D0144DA8421DD14FF67F752A407E
:100AE000CD894FF6FF7606EA05152A434FF6BF7506
:100AF0002A408D8806EA05152A434FF6FF352B401C
:100B00004FF2FF752B400D8A06EA85052B434D8A6F
:100B100006EA85052B43838004838D688563028400
:100B200070BD000000000140000401400A460021A1
:100B3000018B4FF2FF7319404FF6FF7303EA022354
:100B4000194301837047000000220288184B984225
:100B50000ED0184B98420BD0B0F1804F08D0164BF6
:100B6000984205D0154B984202D0154B984204D1BB
:100B70004FF68F731A404B881A43124B984207D096
:100B8000114B984204D04FF6FF431A400B891A4389
:100B900002804B68C3620B880385054B984202D0E4
:100BA000044B984201D18B7A0386012383827047DC
:100BB0000000014000040140000400400008004023
:100BC000000C004000100040001400400448006881
:100BD00020B103480068401E0149086070470000CA
:100BE0000C0000201CB501210846FFF70FFD022272
:100BF00001211448FFF77CFC0220009000208DF8B2
:100C000006008DF8070002208DF8040003208DF8FF
:100C1000050069460B48FFF723FC01211020FFF770
:100C2000F5FC00208DF804000820009001208DF8CC
:100C3000070003208DF8050069460348FFF710FC04
:100C40001CBD0000000002400010024038B5FFF754
:100C50000DFD0120FFF75AFDFFF79CFD0446012C16
:100C600023D1072002234FF4A87208210090C80462
:100C7000FFF772FD0120FFF769FD00BF3920FFF784
:100C800019FD0028FAD00520FFF7E4FB0020FFF74C
:100C900031FD4FF4A050FFF741FD4FF48050FFF7B6
:100CA00049FD0220FFF76AFD01E000BFFEE7FFF704
:100CB000E5FD38BDFFF7CAFF01210846FFF7A6FC96
:100CC000FFF7DCFD1B4800684FF47A72B0FBF2F1CD
:100CD000481EB0F1807F01D301201BE0481E4FF079
:100CE000E022506150170F22002804DB13071C0E6E
:100CF000114B1C5406E013071D0E104B00F00F049F
:100D0000241F1D5500BF00204FF0E02290610720F6
:100D10001061002008B100BFFEE7FFF763FF00F09D
:100D20000FF8FFF711FC42F21070FFF74FFD00BF04
:100D3000FEE700001000002000E400E018ED00E0F5
:100D40001FB501210846FFF771FC41F28830ADF86C
:100D5000040041F2AF3002900020ADF80C00ADF875
:100D6000060001A94FF08040FFF7EEFE0122114678
:100D70009007FFF77FFE00214FF08040FFF75DFEF8
:100D80001C208DF8000000208DF8010001208DF856
:100D900002008DF803006846FFF7FCFB1FBD4FF013
:100DA0004070E1EE100A70470000000000000000F3
:100DB0000102030406070809000000000102030401
:100DC000E00D00080000002014000000C40100082D
:100DD000F40D00081400002064060000E001000883
:100DE0000000000000000000000000000000000003
:040DF0000024F400E7
:040000050800018965
:00000001FF
